{
  "_format": "hh-sol-artifact-1",
  "contractName": "ExampleNFT",
  "sourceName": "contracts/ExampleNFT.sol",
  "abi": [
    {
      "inputs": [],
      "stateMutability": "nonpayable",
      "type": "constructor"
    },
    {
      "anonymous": false,
      "inputs": [
        {
          "indexed": true,
          "internalType": "address",
          "name": "owner",
          "type": "address"
        },
        {
          "indexed": true,
          "internalType": "address",
          "name": "approved",
          "type": "address"
        },
        {
          "indexed": true,
          "internalType": "uint256",
          "name": "tokenId",
          "type": "uint256"
        }
      ],
      "name": "Approval",
      "type": "event"
    },
    {
      "anonymous": false,
      "inputs": [
        {
          "indexed": true,
          "internalType": "address",
          "name": "owner",
          "type": "address"
        },
        {
          "indexed": true,
          "internalType": "address",
          "name": "operator",
          "type": "address"
        },
        {
          "indexed": false,
          "internalType": "bool",
          "name": "approved",
          "type": "bool"
        }
      ],
      "name": "ApprovalForAll",
      "type": "event"
    },
    {
      "anonymous": false,
      "inputs": [
        {
          "indexed": true,
          "internalType": "address",
          "name": "from",
          "type": "address"
        },
        {
          "indexed": true,
          "internalType": "address",
          "name": "to",
          "type": "address"
        },
        {
          "indexed": true,
          "internalType": "uint256",
          "name": "tokenId",
          "type": "uint256"
        }
      ],
      "name": "Transfer",
      "type": "event"
    },
    {
      "inputs": [
        {
          "internalType": "address",
          "name": "to",
          "type": "address"
        },
        {
          "internalType": "uint256",
          "name": "tokenId",
          "type": "uint256"
        }
      ],
      "name": "approve",
      "outputs": [],
      "stateMutability": "nonpayable",
      "type": "function"
    },
    {
      "inputs": [
        {
          "internalType": "address",
          "name": "owner",
          "type": "address"
        }
      ],
      "name": "balanceOf",
      "outputs": [
        {
          "internalType": "uint256",
          "name": "",
          "type": "uint256"
        }
      ],
      "stateMutability": "view",
      "type": "function"
    },
    {
      "inputs": [
        {
          "internalType": "uint256",
          "name": "tokenId",
          "type": "uint256"
        }
      ],
      "name": "getApproved",
      "outputs": [
        {
          "internalType": "address",
          "name": "",
          "type": "address"
        }
      ],
      "stateMutability": "view",
      "type": "function"
    },
    {
      "inputs": [
        {
          "internalType": "address",
          "name": "owner",
          "type": "address"
        },
        {
          "internalType": "address",
          "name": "operator",
          "type": "address"
        }
      ],
      "name": "isApprovedForAll",
      "outputs": [
        {
          "internalType": "bool",
          "name": "",
          "type": "bool"
        }
      ],
      "stateMutability": "view",
      "type": "function"
    },
    {
      "inputs": [
        {
          "internalType": "address",
          "name": "to",
          "type": "address"
        }
      ],
      "name": "mint",
      "outputs": [],
      "stateMutability": "nonpayable",
      "type": "function"
    },
    {
      "inputs": [],
      "name": "name",
      "outputs": [
        {
          "internalType": "string",
          "name": "",
          "type": "string"
        }
      ],
      "stateMutability": "view",
      "type": "function"
    },
    {
      "inputs": [
        {
          "internalType": "uint256",
          "name": "tokenId",
          "type": "uint256"
        }
      ],
      "name": "ownerOf",
      "outputs": [
        {
          "internalType": "address",
          "name": "",
          "type": "address"
        }
      ],
      "stateMutability": "view",
      "type": "function"
    },
    {
      "inputs": [
        {
          "internalType": "address",
          "name": "from",
          "type": "address"
        },
        {
          "internalType": "address",
          "name": "to",
          "type": "address"
        },
        {
          "internalType": "uint256",
          "name": "tokenId",
          "type": "uint256"
        }
      ],
      "name": "safeTransferFrom",
      "outputs": [],
      "stateMutability": "nonpayable",
      "type": "function"
    },
    {
      "inputs": [
        {
          "internalType": "address",
          "name": "from",
          "type": "address"
        },
        {
          "internalType": "address",
          "name": "to",
          "type": "address"
        },
        {
          "internalType": "uint256",
          "name": "tokenId",
          "type": "uint256"
        },
        {
          "internalType": "bytes",
          "name": "_data",
          "type": "bytes"
        }
      ],
      "name": "safeTransferFrom",
      "outputs": [],
      "stateMutability": "nonpayable",
      "type": "function"
    },
    {
      "inputs": [
        {
          "internalType": "address",
          "name": "operator",
          "type": "address"
        },
        {
          "internalType": "bool",
          "name": "approved",
          "type": "bool"
        }
      ],
      "name": "setApprovalForAll",
      "outputs": [],
      "stateMutability": "nonpayable",
      "type": "function"
    },
    {
      "inputs": [
        {
          "internalType": "bytes4",
          "name": "interfaceId",
          "type": "bytes4"
        }
      ],
      "name": "supportsInterface",
      "outputs": [
        {
          "internalType": "bool",
          "name": "",
          "type": "bool"
        }
      ],
      "stateMutability": "view",
      "type": "function"
    },
    {
      "inputs": [],
      "name": "symbol",
      "outputs": [
        {
          "internalType": "string",
          "name": "",
          "type": "string"
        }
      ],
      "stateMutability": "view",
      "type": "function"
    },
    {
      "inputs": [
        {
          "internalType": "uint256",
          "name": "tokenId",
          "type": "uint256"
        }
      ],
      "name": "tokenURI",
      "outputs": [
        {
          "internalType": "string",
          "name": "",
          "type": "string"
        }
      ],
      "stateMutability": "view",
      "type": "function"
    },
    {
      "inputs": [
        {
          "internalType": "address",
          "name": "from",
          "type": "address"
        },
        {
          "internalType": "address",
          "name": "to",
          "type": "address"
        },
        {
          "internalType": "uint256",
          "name": "tokenId",
          "type": "uint256"
        }
      ],
      "name": "transferFrom",
      "outputs": [],
      "stateMutability": "nonpayable",
      "type": "function"
    }
  ],
  "bytecode": "0x60806040523480156200001157600080fd5b506040518060400160405280600a81526020017f4578616d706c654e4654000000000000000000000000000000000000000000008152506040518060400160405280600581526020017f45584e4654000000000000000000000000000000000000000000000000000000815250816000908051906020019062000096929190620000b8565b508060019080519060200190620000af929190620000b8565b505050620001cd565b828054620000c69062000197565b90600052602060002090601f016020900481019282620000ea576000855562000136565b82601f106200010557805160ff191683800117855562000136565b8280016001018555821562000136579182015b828111156200013557825182559160200191906001019062000118565b5b50905062000145919062000149565b5090565b5b80821115620001645760008160009055506001016200014a565b5090565b7f4e487b7100000000000000000000000000000000000000000000000000000000600052602260045260246000fd5b60006002820490506001821680620001b057607f821691505b60208210811415620001c757620001c662000168565b5b50919050565b61279480620001dd6000396000f3fe608060405234801561001057600080fd5b50600436106100ea5760003560e01c80636a6278421161008c578063a22cb46511610066578063a22cb4651461025b578063b88d4fde14610277578063c87b56dd14610293578063e985e9c5146102c3576100ea565b80636a627842146101f157806370a082311461020d57806395d89b411461023d576100ea565b8063095ea7b3116100c8578063095ea7b31461016d57806323b872dd1461018957806342842e0e146101a55780636352211e146101c1576100ea565b806301ffc9a7146100ef57806306fdde031461011f578063081812fc1461013d575b600080fd5b61010960048036038101906101049190611717565b6102f3565b604051610116919061175f565b60405180910390f35b6101276103d5565b6040516101349190611813565b60405180910390f35b6101576004803603810190610152919061186b565b610467565b60405161016491906118d9565b60405180910390f35b61018760048036038101906101829190611920565b6104ec565b005b6101a3600480360381019061019e9190611960565b610604565b005b6101bf60048036038101906101ba9190611960565b610664565b005b6101db60048036038101906101d6919061186b565b610684565b6040516101e891906118d9565b60405180910390f35b61020b600480360381019061020691906119b3565b610736565b005b610227600480360381019061022291906119b3565b610756565b60405161023491906119ef565b60405180910390f35b61024561080e565b6040516102529190611813565b60405180910390f35b61027560048036038101906102709190611a36565b6108a0565b005b610291600480360381019061028c9190611bab565b6108b6565b005b6102ad60048036038101906102a8919061186b565b610918565b6040516102ba9190611813565b60405180910390f35b6102dd60048036038101906102d89190611c2e565b6109bf565b6040516102ea919061175f565b60405180910390f35b60007f80ac58cd000000000000000000000000000000000000000000000000000000007bffffffffffffffffffffffffffffffffffffffffffffffffffffffff1916827bffffffffffffffffffffffffffffffffffffffffffffffffffffffff191614806103be57507f5b5e139f000000000000000000000000000000000000000000000000000000007bffffffffffffffffffffffffffffffffffffffffffffffffffffffff1916827bffffffffffffffffffffffffffffffffffffffffffffffffffffffff1916145b806103ce57506103cd82610a53565b5b9050919050565b6060600080546103e490611c9d565b80601f016020809104026020016040519081016040528092919081815260200182805461041090611c9d565b801561045d5780601f106104325761010080835404028352916020019161045d565b820191906000526020600020905b81548152906001019060200180831161044057829003601f168201915b5050505050905090565b600061047282610abd565b6104b1576040517f08c379a00000000000000000000000000000000000000000000000000000000081526004016104a890611d41565b60405180910390fd5b6004600083815260200190815260200160002060009054906101000a900473ffffffffffffffffffffffffffffffffffffffff169050919050565b60006104f782610684565b90508073ffffffffffffffffffffffffffffffffffffffff168373ffffffffffffffffffffffffffffffffffffffff161415610568576040517f08c379a000000000000000000000000000000000000000000000000000000000815260040161055f90611dd3565b60405180910390fd5b8073ffffffffffffffffffffffffffffffffffffffff16610587610b29565b73ffffffffffffffffffffffffffffffffffffffff1614806105b657506105b5816105b0610b29565b6109bf565b5b6105f5576040517f08c379a00000000000000000000000000000000000000000000000000000000081526004016105ec90611e65565b60405180910390fd5b6105ff8383610b31565b505050565b61061561060f610b29565b82610bea565b610654576040517f08c379a000000000000000000000000000000000000000000000000000000000815260040161064b90611ef7565b60405180910390fd5b61065f838383610cc8565b505050565b61067f838383604051806020016040528060008152506108b6565b505050565b6000806002600084815260200190815260200160002060009054906101000a900473ffffffffffffffffffffffffffffffffffffffff169050600073ffffffffffffffffffffffffffffffffffffffff168173ffffffffffffffffffffffffffffffffffffffff16141561072d576040517f08c379a000000000000000000000000000000000000000000000000000000000815260040161072490611f89565b60405180910390fd5b80915050919050565b6107406006610f2f565b6107538161074e6006610f45565b610f53565b50565b60008073ffffffffffffffffffffffffffffffffffffffff168273ffffffffffffffffffffffffffffffffffffffff1614156107c7576040517f08c379a00000000000000000000000000000000000000000000000000000000081526004016107be9061201b565b60405180910390fd5b600360008373ffffffffffffffffffffffffffffffffffffffff1673ffffffffffffffffffffffffffffffffffffffff168152602001908152602001600020549050919050565b60606001805461081d90611c9d565b80601f016020809104026020016040519081016040528092919081815260200182805461084990611c9d565b80156108965780601f1061086b57610100808354040283529160200191610896565b820191906000526020600020905b81548152906001019060200180831161087957829003601f168201915b5050505050905090565b6108b26108ab610b29565b8383610f71565b5050565b6108c76108c1610b29565b83610bea565b610906576040517f08c379a00000000000000000000000000000000000000000000000000000000081526004016108fd90611ef7565b60405180910390fd5b610912848484846110de565b50505050565b606061092382610abd565b610962576040517f08c379a0000000000000000000000000000000000000000000000000000000008152600401610959906120ad565b60405180910390fd5b600061096c61113a565b9050600081511161098c57604051806020016040528060008152506109b7565b8061099684611151565b6040516020016109a7929190612109565b6040516020818303038152906040525b915050919050565b6000600560008473ffffffffffffffffffffffffffffffffffffffff1673ffffffffffffffffffffffffffffffffffffffff16815260200190815260200160002060008373ffffffffffffffffffffffffffffffffffffffff1673ffffffffffffffffffffffffffffffffffffffff16815260200190815260200160002060009054906101000a900460ff16905092915050565b60007f01ffc9a7000000000000000000000000000000000000000000000000000000007bffffffffffffffffffffffffffffffffffffffffffffffffffffffff1916827bffffffffffffffffffffffffffffffffffffffffffffffffffffffff1916149050919050565b60008073ffffffffffffffffffffffffffffffffffffffff166002600084815260200190815260200160002060009054906101000a900473ffffffffffffffffffffffffffffffffffffffff1673ffffffffffffffffffffffffffffffffffffffff1614159050919050565b600033905090565b816004600083815260200190815260200160002060006101000a81548173ffffffffffffffffffffffffffffffffffffffff021916908373ffffffffffffffffffffffffffffffffffffffff160217905550808273ffffffffffffffffffffffffffffffffffffffff16610ba483610684565b73ffffffffffffffffffffffffffffffffffffffff167f8c5be1e5ebec7d5bd14f71427d1e84f3dd0314c0f7b2291e5b200ac8c7c3b92560405160405180910390a45050565b6000610bf582610abd565b610c34576040517f08c379a0000000000000000000000000000000000000000000000000000000008152600401610c2b9061219f565b60405180910390fd5b6000610c3f83610684565b90508073ffffffffffffffffffffffffffffffffffffffff168473ffffffffffffffffffffffffffffffffffffffff161480610cae57508373ffffffffffffffffffffffffffffffffffffffff16610c9684610467565b73ffffffffffffffffffffffffffffffffffffffff16145b80610cbf5750610cbe81856109bf565b5b91505092915050565b8273ffffffffffffffffffffffffffffffffffffffff16610ce882610684565b73ffffffffffffffffffffffffffffffffffffffff1614610d3e576040517f08c379a0000000000000000000000000000000000000000000000000000000008152600401610d3590612231565b60405180910390fd5b600073ffffffffffffffffffffffffffffffffffffffff168273ffffffffffffffffffffffffffffffffffffffff161415610dae576040517f08c379a0000000000000000000000000000000000000000000000000000000008152600401610da5906122c3565b60405180910390fd5b610db98383836112b2565b610dc4600082610b31565b6001600360008573ffffffffffffffffffffffffffffffffffffffff1673ffffffffffffffffffffffffffffffffffffffff1681526020019081526020016000206000828254610e149190612312565b925050819055506001600360008473ffffffffffffffffffffffffffffffffffffffff1673ffffffffffffffffffffffffffffffffffffffff1681526020019081526020016000206000828254610e6b9190612346565b92505081905550816002600083815260200190815260200160002060006101000a81548173ffffffffffffffffffffffffffffffffffffffff021916908373ffffffffffffffffffffffffffffffffffffffff160217905550808273ffffffffffffffffffffffffffffffffffffffff168473ffffffffffffffffffffffffffffffffffffffff167fddf252ad1be2c89b69c2b068fc378daa952ba7f163c4a11628f55a4df523b3ef60405160405180910390a4610f2a8383836112b7565b505050565b6001816000016000828254019250508190555050565b600081600001549050919050565b610f6d8282604051806020016040528060008152506112bc565b5050565b8173ffffffffffffffffffffffffffffffffffffffff168373ffffffffffffffffffffffffffffffffffffffff161415610fe0576040517f08c379a0000000000000000000000000000000000000000000000000000000008152600401610fd7906123e8565b60405180910390fd5b80600560008573ffffffffffffffffffffffffffffffffffffffff1673ffffffffffffffffffffffffffffffffffffffff16815260200190815260200160002060008473ffffffffffffffffffffffffffffffffffffffff1673ffffffffffffffffffffffffffffffffffffffff16815260200190815260200160002060006101000a81548160ff0219169083151502179055508173ffffffffffffffffffffffffffffffffffffffff168373ffffffffffffffffffffffffffffffffffffffff167f17307eab39ab6107e8899845ad3d59bd9653f200f220920489ca2b5937696c31836040516110d1919061175f565b60405180910390a3505050565b6110e9848484610cc8565b6110f584848484611317565b611134576040517f08c379a000000000000000000000000000000000000000000000000000000000815260040161112b9061247a565b60405180910390fd5b50505050565b606060405180602001604052806000815250905090565b60606000821415611199576040518060400160405280600181526020017f300000000000000000000000000000000000000000000000000000000000000081525090506112ad565b600082905060005b600082146111cb5780806111b49061249a565b915050600a826111c49190612512565b91506111a1565b60008167ffffffffffffffff8111156111e7576111e6611a80565b5b6040519080825280601f01601f1916602001820160405280156112195781602001600182028036833780820191505090505b5090505b600085146112a6576001826112329190612312565b9150600a856112419190612543565b603061124d9190612346565b60f81b81838151811061126357611262612574565b5b60200101907effffffffffffffffffffffffffffffffffffffffffffffffffffffffffffff1916908160001a905350600a8561129f9190612512565b945061121d565b8093505050505b919050565b505050565b505050565b6112c683836114ae565b6112d36000848484611317565b611312576040517f08c379a00000000000000000000000000000000000000000000000000000000081526004016113099061247a565b60405180910390fd5b505050565b60006113388473ffffffffffffffffffffffffffffffffffffffff16611688565b156114a1578373ffffffffffffffffffffffffffffffffffffffff1663150b7a02611361610b29565b8786866040518563ffffffff1660e01b815260040161138394939291906125f8565b602060405180830381600087803b15801561139d57600080fd5b505af19250505080156113ce57506040513d601f19601f820116820180604052508101906113cb9190612659565b60015b611451573d80600081146113fe576040519150601f19603f3d011682016040523d82523d6000602084013e611403565b606091505b50600081511415611449576040517f08c379a00000000000000000000000000000000000000000000000000000000081526004016114409061247a565b60405180910390fd5b805181602001fd5b63150b7a0260e01b7bffffffffffffffffffffffffffffffffffffffffffffffffffffffff1916817bffffffffffffffffffffffffffffffffffffffffffffffffffffffff1916149150506114a6565b600190505b949350505050565b600073ffffffffffffffffffffffffffffffffffffffff168273ffffffffffffffffffffffffffffffffffffffff16141561151e576040517f08c379a0000000000000000000000000000000000000000000000000000000008152600401611515906126d2565b60405180910390fd5b61152781610abd565b15611567576040517f08c379a000000000000000000000000000000000000000000000000000000000815260040161155e9061273e565b60405180910390fd5b611573600083836112b2565b6001600360008473ffffffffffffffffffffffffffffffffffffffff1673ffffffffffffffffffffffffffffffffffffffff16815260200190815260200160002060008282546115c39190612346565b92505081905550816002600083815260200190815260200160002060006101000a81548173ffffffffffffffffffffffffffffffffffffffff021916908373ffffffffffffffffffffffffffffffffffffffff160217905550808273ffffffffffffffffffffffffffffffffffffffff16600073ffffffffffffffffffffffffffffffffffffffff167fddf252ad1be2c89b69c2b068fc378daa952ba7f163c4a11628f55a4df523b3ef60405160405180910390a4611684600083836112b7565b5050565b6000808273ffffffffffffffffffffffffffffffffffffffff163b119050919050565b6000604051905090565b600080fd5b600080fd5b60007fffffffff0000000000000000000000000000000000000000000000000000000082169050919050565b6116f4816116bf565b81146116ff57600080fd5b50565b600081359050611711816116eb565b92915050565b60006020828403121561172d5761172c6116b5565b5b600061173b84828501611702565b91505092915050565b60008115159050919050565b61175981611744565b82525050565b60006020820190506117746000830184611750565b92915050565b600081519050919050565b600082825260208201905092915050565b60005b838110156117b4578082015181840152602081019050611799565b838111156117c3576000848401525b50505050565b6000601f19601f8301169050919050565b60006117e58261177a565b6117ef8185611785565b93506117ff818560208601611796565b611808816117c9565b840191505092915050565b6000602082019050818103600083015261182d81846117da565b905092915050565b6000819050919050565b61184881611835565b811461185357600080fd5b50565b6000813590506118658161183f565b92915050565b600060208284031215611881576118806116b5565b5b600061188f84828501611856565b91505092915050565b600073ffffffffffffffffffffffffffffffffffffffff82169050919050565b60006118c382611898565b9050919050565b6118d3816118b8565b82525050565b60006020820190506118ee60008301846118ca565b92915050565b6118fd816118b8565b811461190857600080fd5b50565b60008135905061191a816118f4565b92915050565b60008060408385031215611937576119366116b5565b5b60006119458582860161190b565b925050602061195685828601611856565b9150509250929050565b600080600060608486031215611979576119786116b5565b5b60006119878682870161190b565b93505060206119988682870161190b565b92505060406119a986828701611856565b9150509250925092565b6000602082840312156119c9576119c86116b5565b5b60006119d78482850161190b565b91505092915050565b6119e981611835565b82525050565b6000602082019050611a0460008301846119e0565b92915050565b611a1381611744565b8114611a1e57600080fd5b50565b600081359050611a3081611a0a565b92915050565b60008060408385031215611a4d57611a4c6116b5565b5b6000611a5b8582860161190b565b9250506020611a6c85828601611a21565b9150509250929050565b600080fd5b600080fd5b7f4e487b7100000000000000000000000000000000000000000000000000000000600052604160045260246000fd5b611ab8826117c9565b810181811067ffffffffffffffff82111715611ad757611ad6611a80565b5b80604052505050565b6000611aea6116ab565b9050611af68282611aaf565b919050565b600067ffffffffffffffff821115611b1657611b15611a80565b5b611b1f826117c9565b9050602081019050919050565b82818337600083830152505050565b6000611b4e611b4984611afb565b611ae0565b905082815260208101848484011115611b6a57611b69611a7b565b5b611b75848285611b2c565b509392505050565b600082601f830112611b9257611b91611a76565b5b8135611ba2848260208601611b3b565b91505092915050565b60008060008060808587031215611bc557611bc46116b5565b5b6000611bd38782880161190b565b9450506020611be48782880161190b565b9350506040611bf587828801611856565b925050606085013567ffffffffffffffff811115611c1657611c156116ba565b5b611c2287828801611b7d565b91505092959194509250565b60008060408385031215611c4557611c446116b5565b5b6000611c538582860161190b565b9250506020611c648582860161190b565b9150509250929050565b7f4e487b7100000000000000000000000000000000000000000000000000000000600052602260045260246000fd5b60006002820490506001821680611cb557607f821691505b60208210811415611cc957611cc8611c6e565b5b50919050565b7f4552433732313a20617070726f76656420717565727920666f72206e6f6e657860008201527f697374656e7420746f6b656e0000000000000000000000000000000000000000602082015250565b6000611d2b602c83611785565b9150611d3682611ccf565b604082019050919050565b60006020820190508181036000830152611d5a81611d1e565b9050919050565b7f4552433732313a20617070726f76616c20746f2063757272656e74206f776e6560008201527f7200000000000000000000000000000000000000000000000000000000000000602082015250565b6000611dbd602183611785565b9150611dc882611d61565b604082019050919050565b60006020820190508181036000830152611dec81611db0565b9050919050565b7f4552433732313a20617070726f76652063616c6c6572206973206e6f74206f7760008201527f6e6572206e6f7220617070726f76656420666f7220616c6c0000000000000000602082015250565b6000611e4f603883611785565b9150611e5a82611df3565b604082019050919050565b60006020820190508181036000830152611e7e81611e42565b9050919050565b7f4552433732313a207472616e736665722063616c6c6572206973206e6f74206f60008201527f776e6572206e6f7220617070726f766564000000000000000000000000000000602082015250565b6000611ee1603183611785565b9150611eec82611e85565b604082019050919050565b60006020820190508181036000830152611f1081611ed4565b9050919050565b7f4552433732313a206f776e657220717565727920666f72206e6f6e657869737460008201527f656e7420746f6b656e0000000000000000000000000000000000000000000000602082015250565b6000611f73602983611785565b9150611f7e82611f17565b604082019050919050565b60006020820190508181036000830152611fa281611f66565b9050919050565b7f4552433732313a2062616c616e636520717565727920666f7220746865207a6560008201527f726f206164647265737300000000000000000000000000000000000000000000602082015250565b6000612005602a83611785565b915061201082611fa9565b604082019050919050565b6000602082019050818103600083015261203481611ff8565b9050919050565b7f4552433732314d657461646174613a2055524920717565727920666f72206e6f60008201527f6e6578697374656e7420746f6b656e0000000000000000000000000000000000602082015250565b6000612097602f83611785565b91506120a28261203b565b604082019050919050565b600060208201905081810360008301526120c68161208a565b9050919050565b600081905092915050565b60006120e38261177a565b6120ed81856120cd565b93506120fd818560208601611796565b80840191505092915050565b600061211582856120d8565b915061212182846120d8565b91508190509392505050565b7f4552433732313a206f70657261746f7220717565727920666f72206e6f6e657860008201527f697374656e7420746f6b656e0000000000000000000000000000000000000000602082015250565b6000612189602c83611785565b91506121948261212d565b604082019050919050565b600060208201905081810360008301526121b88161217c565b9050919050565b7f4552433732313a207472616e736665722066726f6d20696e636f72726563742060008201527f6f776e6572000000000000000000000000000000000000000000000000000000602082015250565b600061221b602583611785565b9150612226826121bf565b604082019050919050565b6000602082019050818103600083015261224a8161220e565b9050919050565b7f4552433732313a207472616e7366657220746f20746865207a65726f2061646460008201527f7265737300000000000000000000000000000000000000000000000000000000602082015250565b60006122ad602483611785565b91506122b882612251565b604082019050919050565b600060208201905081810360008301526122dc816122a0565b9050919050565b7f4e487b7100000000000000000000000000000000000000000000000000000000600052601160045260246000fd5b600061231d82611835565b915061232883611835565b92508282101561233b5761233a6122e3565b5b828203905092915050565b600061235182611835565b915061235c83611835565b9250827fffffffffffffffffffffffffffffffffffffffffffffffffffffffffffffffff03821115612391576123906122e3565b5b828201905092915050565b7f4552433732313a20617070726f766520746f2063616c6c657200000000000000600082015250565b60006123d2601983611785565b91506123dd8261239c565b602082019050919050565b60006020820190508181036000830152612401816123c5565b9050919050565b7f4552433732313a207472616e7366657220746f206e6f6e20455243373231526560008201527f63656976657220696d706c656d656e7465720000000000000000000000000000602082015250565b6000612464603283611785565b915061246f82612408565b604082019050919050565b6000602082019050818103600083015261249381612457565b9050919050565b60006124a582611835565b91507fffffffffffffffffffffffffffffffffffffffffffffffffffffffffffffffff8214156124d8576124d76122e3565b5b600182019050919050565b7f4e487b7100000000000000000000000000000000000000000000000000000000600052601260045260246000fd5b600061251d82611835565b915061252883611835565b925082612538576125376124e3565b5b828204905092915050565b600061254e82611835565b915061255983611835565b925082612569576125686124e3565b5b828206905092915050565b7f4e487b7100000000000000000000000000000000000000000000000000000000600052603260045260246000fd5b600081519050919050565b600082825260208201905092915050565b60006125ca826125a3565b6125d481856125ae565b93506125e4818560208601611796565b6125ed816117c9565b840191505092915050565b600060808201905061260d60008301876118ca565b61261a60208301866118ca565b61262760408301856119e0565b818103606083015261263981846125bf565b905095945050505050565b600081519050612653816116eb565b92915050565b60006020828403121561266f5761266e6116b5565b5b600061267d84828501612644565b91505092915050565b7f4552433732313a206d696e7420746f20746865207a65726f2061646472657373600082015250565b60006126bc602083611785565b91506126c782612686565b602082019050919050565b600060208201905081810360008301526126eb816126af565b9050919050565b7f4552433732313a20746f6b656e20616c7265616479206d696e74656400000000600082015250565b6000612728601c83611785565b9150612733826126f2565b602082019050919050565b600060208201905081810360008301526127578161271b565b905091905056fea2646970667358221220be58273c779c13fe24c83343fe2361e8a0c08623929cc195eb307b56a1d5a2d564736f6c63430008090033",
  "linkReferences": {},
  "deployedLinkReferences": {}
}