{
  "_format": "hh-sol-artifact-1",
  "contractName": "ExampleNFT",
  "sourceName": "contracts/ExampleNFT.sol",
  "abi": [
    {
      "inputs": [],
      "stateMutability": "nonpayable",
      "type": "constructor"
    },
    {
      "anonymous": false,
      "inputs": [
        {
          "indexed": true,
          "internalType": "address",
          "name": "owner",
          "type": "address"
        },
        {
          "indexed": true,
          "internalType": "address",
          "name": "approved",
          "type": "address"
        },
        {
          "indexed": true,
          "internalType": "uint256",
          "name": "tokenId",
          "type": "uint256"
        }
      ],
      "name": "Approval",
      "type": "event"
    },
    {
      "anonymous": false,
      "inputs": [
        {
          "indexed": true,
          "internalType": "address",
          "name": "owner",
          "type": "address"
        },
        {
          "indexed": true,
          "internalType": "address",
          "name": "operator",
          "type": "address"
        },
        {
          "indexed": false,
          "internalType": "bool",
          "name": "approved",
          "type": "bool"
        }
      ],
      "name": "ApprovalForAll",
      "type": "event"
    },
    {
      "anonymous": false,
      "inputs": [
        {
          "indexed": true,
          "internalType": "address",
          "name": "from",
          "type": "address"
        },
        {
          "indexed": true,
          "internalType": "address",
          "name": "to",
          "type": "address"
        },
        {
          "indexed": true,
          "internalType": "uint256",
          "name": "tokenId",
          "type": "uint256"
        }
      ],
      "name": "Transfer",
      "type": "event"
    },
    {
      "inputs": [
        {
          "internalType": "address",
          "name": "to",
          "type": "address"
        },
        {
          "internalType": "uint256",
          "name": "tokenId",
          "type": "uint256"
        }
      ],
      "name": "approve",
      "outputs": [],
      "stateMutability": "nonpayable",
      "type": "function"
    },
    {
      "inputs": [
        {
          "internalType": "address",
          "name": "owner",
          "type": "address"
        }
      ],
      "name": "balanceOf",
      "outputs": [
        {
          "internalType": "uint256",
          "name": "",
          "type": "uint256"
        }
      ],
      "stateMutability": "view",
      "type": "function"
    },
    {
      "inputs": [
        {
          "internalType": "uint256",
          "name": "tokenId",
          "type": "uint256"
        }
      ],
      "name": "getApproved",
      "outputs": [
        {
          "internalType": "address",
          "name": "",
          "type": "address"
        }
      ],
      "stateMutability": "view",
      "type": "function"
    },
    {
      "inputs": [
        {
          "internalType": "address",
          "name": "owner",
          "type": "address"
        },
        {
          "internalType": "address",
          "name": "operator",
          "type": "address"
        }
      ],
      "name": "isApprovedForAll",
      "outputs": [
        {
          "internalType": "bool",
          "name": "",
          "type": "bool"
        }
      ],
      "stateMutability": "view",
      "type": "function"
    },
    {
      "inputs": [
        {
          "internalType": "address",
          "name": "to",
          "type": "address"
        }
      ],
      "name": "mint",
      "outputs": [],
      "stateMutability": "nonpayable",
      "type": "function"
    },
    {
      "inputs": [],
      "name": "name",
      "outputs": [
        {
          "internalType": "string",
          "name": "",
          "type": "string"
        }
      ],
      "stateMutability": "view",
      "type": "function"
    },
    {
      "inputs": [
        {
          "internalType": "uint256",
          "name": "tokenId",
          "type": "uint256"
        }
      ],
      "name": "ownerOf",
      "outputs": [
        {
          "internalType": "address",
          "name": "",
          "type": "address"
        }
      ],
      "stateMutability": "view",
      "type": "function"
    },
    {
      "inputs": [
        {
          "internalType": "address",
          "name": "from",
          "type": "address"
        },
        {
          "internalType": "address",
          "name": "to",
          "type": "address"
        },
        {
          "internalType": "uint256",
          "name": "tokenId",
          "type": "uint256"
        }
      ],
      "name": "safeTransferFrom",
      "outputs": [],
      "stateMutability": "nonpayable",
      "type": "function"
    },
    {
      "inputs": [
        {
          "internalType": "address",
          "name": "from",
          "type": "address"
        },
        {
          "internalType": "address",
          "name": "to",
          "type": "address"
        },
        {
          "internalType": "uint256",
          "name": "tokenId",
          "type": "uint256"
        },
        {
          "internalType": "bytes",
          "name": "_data",
          "type": "bytes"
        }
      ],
      "name": "safeTransferFrom",
      "outputs": [],
      "stateMutability": "nonpayable",
      "type": "function"
    },
    {
      "inputs": [
        {
          "internalType": "address",
          "name": "operator",
          "type": "address"
        },
        {
          "internalType": "bool",
          "name": "approved",
          "type": "bool"
        }
      ],
      "name": "setApprovalForAll",
      "outputs": [],
      "stateMutability": "nonpayable",
      "type": "function"
    },
    {
      "inputs": [
        {
          "internalType": "bytes4",
          "name": "interfaceId",
          "type": "bytes4"
        }
      ],
      "name": "supportsInterface",
      "outputs": [
        {
          "internalType": "bool",
          "name": "",
          "type": "bool"
        }
      ],
      "stateMutability": "view",
      "type": "function"
    },
    {
      "inputs": [],
      "name": "symbol",
      "outputs": [
        {
          "internalType": "string",
          "name": "",
          "type": "string"
        }
      ],
      "stateMutability": "view",
      "type": "function"
    },
    {
      "inputs": [
        {
          "internalType": "uint256",
          "name": "tokenId",
          "type": "uint256"
        }
      ],
      "name": "tokenURI",
      "outputs": [
        {
          "internalType": "string",
          "name": "",
          "type": "string"
        }
      ],
      "stateMutability": "view",
      "type": "function"
    },
    {
      "inputs": [
        {
          "internalType": "address",
          "name": "from",
          "type": "address"
        },
        {
          "internalType": "address",
          "name": "to",
          "type": "address"
        },
        {
          "internalType": "uint256",
          "name": "tokenId",
          "type": "uint256"
        }
      ],
      "name": "transferFrom",
      "outputs": [],
      "stateMutability": "nonpayable",
      "type": "function"
    }
  ],
  "bytecode": "0x60806040523480156200001157600080fd5b506040518060400160405280600a81526020017f4578616d706c654e4654000000000000000000000000000000000000000000008152506040518060400160405280600581526020017f45584e4654000000000000000000000000000000000000000000000000000000815250816000908051906020019062000096929190620000b8565b508060019080519060200190620000af929190620000b8565b505050620001cd565b828054620000c69062000168565b90600052602060002090601f016020900481019282620000ea576000855562000136565b82601f106200010557805160ff191683800117855562000136565b8280016001018555821562000136579182015b828111156200013557825182559160200191906001019062000118565b5b50905062000145919062000149565b5090565b5b80821115620001645760008160009055506001016200014a565b5090565b600060028204905060018216806200018157607f821691505b602082108114156200019857620001976200019e565b5b50919050565b7f4e487b7100000000000000000000000000000000000000000000000000000000600052602260045260246000fd5b61276d80620001dd6000396000f3fe608060405234801561001057600080fd5b50600436106100ea5760003560e01c80636a6278421161008c578063a22cb46511610066578063a22cb4651461025b578063b88d4fde14610277578063c87b56dd14610293578063e985e9c5146102c3576100ea565b80636a627842146101f157806370a082311461020d57806395d89b411461023d576100ea565b8063095ea7b3116100c8578063095ea7b31461016d57806323b872dd1461018957806342842e0e146101a55780636352211e146101c1576100ea565b806301ffc9a7146100ef57806306fdde031461011f578063081812fc1461013d575b600080fd5b6101096004803603810190610104919061196f565b6102f3565b6040516101169190611d2f565b60405180910390f35b6101276103d5565b6040516101349190611d4a565b60405180910390f35b610157600480360381019061015291906119c1565b610467565b6040516101649190611cc8565b60405180910390f35b61018760048036038101906101829190611933565b6104ec565b005b6101a3600480360381019061019e919061182d565b610604565b005b6101bf60048036038101906101ba919061182d565b610664565b005b6101db60048036038101906101d691906119c1565b610684565b6040516101e89190611cc8565b60405180910390f35b61020b600480360381019061020691906117c8565b610736565b005b610227600480360381019061022291906117c8565b610756565b6040516102349190611f2c565b60405180910390f35b61024561080e565b6040516102529190611d4a565b60405180910390f35b610275600480360381019061027091906118f7565b6108a0565b005b610291600480360381019061028c919061187c565b6108b6565b005b6102ad60048036038101906102a891906119c1565b610918565b6040516102ba9190611d4a565b60405180910390f35b6102dd60048036038101906102d891906117f1565b6109bf565b6040516102ea9190611d2f565b60405180910390f35b60007f80ac58cd000000000000000000000000000000000000000000000000000000007bffffffffffffffffffffffffffffffffffffffffffffffffffffffff1916827bffffffffffffffffffffffffffffffffffffffffffffffffffffffff191614806103be57507f5b5e139f000000000000000000000000000000000000000000000000000000007bffffffffffffffffffffffffffffffffffffffffffffffffffffffff1916827bffffffffffffffffffffffffffffffffffffffffffffffffffffffff1916145b806103ce57506103cd82610a53565b5b9050919050565b6060600080546103e490612151565b80601f016020809104026020016040519081016040528092919081815260200182805461041090612151565b801561045d5780601f106104325761010080835404028352916020019161045d565b820191906000526020600020905b81548152906001019060200180831161044057829003601f168201915b5050505050905090565b600061047282610abd565b6104b1576040517f08c379a00000000000000000000000000000000000000000000000000000000081526004016104a890611eac565b60405180910390fd5b6004600083815260200190815260200160002060009054906101000a900473ffffffffffffffffffffffffffffffffffffffff169050919050565b60006104f782610684565b90508073ffffffffffffffffffffffffffffffffffffffff168373ffffffffffffffffffffffffffffffffffffffff161415610568576040517f08c379a000000000000000000000000000000000000000000000000000000000815260040161055f90611eec565b60405180910390fd5b8073ffffffffffffffffffffffffffffffffffffffff16610587610b29565b73ffffffffffffffffffffffffffffffffffffffff1614806105b657506105b5816105b0610b29565b6109bf565b5b6105f5576040517f08c379a00000000000000000000000000000000000000000000000000000000081526004016105ec90611e2c565b60405180910390fd5b6105ff8383610b31565b505050565b61061561060f610b29565b82610bea565b610654576040517f08c379a000000000000000000000000000000000000000000000000000000000815260040161064b90611f0c565b60405180910390fd5b61065f838383610cc8565b505050565b61067f838383604051806020016040528060008152506108b6565b505050565b6000806002600084815260200190815260200160002060009054906101000a900473ffffffffffffffffffffffffffffffffffffffff169050600073ffffffffffffffffffffffffffffffffffffffff168173ffffffffffffffffffffffffffffffffffffffff16141561072d576040517f08c379a000000000000000000000000000000000000000000000000000000000815260040161072490611e6c565b60405180910390fd5b80915050919050565b6107406006610f2f565b6107538161074e6006610f45565b610f53565b50565b60008073ffffffffffffffffffffffffffffffffffffffff168273ffffffffffffffffffffffffffffffffffffffff1614156107c7576040517f08c379a00000000000000000000000000000000000000000000000000000000081526004016107be90611e4c565b60405180910390fd5b600360008373ffffffffffffffffffffffffffffffffffffffff1673ffffffffffffffffffffffffffffffffffffffff168152602001908152602001600020549050919050565b60606001805461081d90612151565b80601f016020809104026020016040519081016040528092919081815260200182805461084990612151565b80156108965780601f1061086b57610100808354040283529160200191610896565b820191906000526020600020905b81548152906001019060200180831161087957829003601f168201915b5050505050905090565b6108b26108ab610b29565b8383610f71565b5050565b6108c76108c1610b29565b83610bea565b610906576040517f08c379a00000000000000000000000000000000000000000000000000000000081526004016108fd90611f0c565b60405180910390fd5b610912848484846110de565b50505050565b606061092382610abd565b610962576040517f08c379a000000000000000000000000000000000000000000000000000000000815260040161095990611ecc565b60405180910390fd5b600061096c61113a565b9050600081511161098c57604051806020016040528060008152506109b7565b8061099684611151565b6040516020016109a7929190611ca4565b6040516020818303038152906040525b915050919050565b6000600560008473ffffffffffffffffffffffffffffffffffffffff1673ffffffffffffffffffffffffffffffffffffffff16815260200190815260200160002060008373ffffffffffffffffffffffffffffffffffffffff1673ffffffffffffffffffffffffffffffffffffffff16815260200190815260200160002060009054906101000a900460ff16905092915050565b60007f01ffc9a7000000000000000000000000000000000000000000000000000000007bffffffffffffffffffffffffffffffffffffffffffffffffffffffff1916827bffffffffffffffffffffffffffffffffffffffffffffffffffffffff1916149050919050565b60008073ffffffffffffffffffffffffffffffffffffffff166002600084815260200190815260200160002060009054906101000a900473ffffffffffffffffffffffffffffffffffffffff1673ffffffffffffffffffffffffffffffffffffffff1614159050919050565b600033905090565b816004600083815260200190815260200160002060006101000a81548173ffffffffffffffffffffffffffffffffffffffff021916908373ffffffffffffffffffffffffffffffffffffffff160217905550808273ffffffffffffffffffffffffffffffffffffffff16610ba483610684565b73ffffffffffffffffffffffffffffffffffffffff167f8c5be1e5ebec7d5bd14f71427d1e84f3dd0314c0f7b2291e5b200ac8c7c3b92560405160405180910390a45050565b6000610bf582610abd565b610c34576040517f08c379a0000000000000000000000000000000000000000000000000000000008152600401610c2b90611e0c565b60405180910390fd5b6000610c3f83610684565b90508073ffffffffffffffffffffffffffffffffffffffff168473ffffffffffffffffffffffffffffffffffffffff161480610cae57508373ffffffffffffffffffffffffffffffffffffffff16610c9684610467565b73ffffffffffffffffffffffffffffffffffffffff16145b80610cbf5750610cbe81856109bf565b5b91505092915050565b8273ffffffffffffffffffffffffffffffffffffffff16610ce882610684565b73ffffffffffffffffffffffffffffffffffffffff1614610d3e576040517f08c379a0000000000000000000000000000000000000000000000000000000008152600401610d3590611d8c565b60405180910390fd5b600073ffffffffffffffffffffffffffffffffffffffff168273ffffffffffffffffffffffffffffffffffffffff161415610dae576040517f08c379a0000000000000000000000000000000000000000000000000000000008152600401610da590611dcc565b60405180910390fd5b610db98383836112fe565b610dc4600082610b31565b6001600360008573ffffffffffffffffffffffffffffffffffffffff1673ffffffffffffffffffffffffffffffffffffffff1681526020019081526020016000206000828254610e149190612067565b925050819055506001600360008473ffffffffffffffffffffffffffffffffffffffff1673ffffffffffffffffffffffffffffffffffffffff1681526020019081526020016000206000828254610e6b9190611fe0565b92505081905550816002600083815260200190815260200160002060006101000a81548173ffffffffffffffffffffffffffffffffffffffff021916908373ffffffffffffffffffffffffffffffffffffffff160217905550808273ffffffffffffffffffffffffffffffffffffffff168473ffffffffffffffffffffffffffffffffffffffff167fddf252ad1be2c89b69c2b068fc378daa952ba7f163c4a11628f55a4df523b3ef60405160405180910390a4610f2a838383611303565b505050565b6001816000016000828254019250508190555050565b600081600001549050919050565b610f6d828260405180602001604052806000815250611308565b5050565b8173ffffffffffffffffffffffffffffffffffffffff168373ffffffffffffffffffffffffffffffffffffffff161415610fe0576040517f08c379a0000000000000000000000000000000000000000000000000000000008152600401610fd790611dec565b60405180910390fd5b80600560008573ffffffffffffffffffffffffffffffffffffffff1673ffffffffffffffffffffffffffffffffffffffff16815260200190815260200160002060008473ffffffffffffffffffffffffffffffffffffffff1673ffffffffffffffffffffffffffffffffffffffff16815260200190815260200160002060006101000a81548160ff0219169083151502179055508173ffffffffffffffffffffffffffffffffffffffff168373ffffffffffffffffffffffffffffffffffffffff167f17307eab39ab6107e8899845ad3d59bd9653f200f220920489ca2b5937696c31836040516110d19190611d2f565b60405180910390a3505050565b6110e9848484610cc8565b6110f584848484611363565b611134576040517f08c379a000000000000000000000000000000000000000000000000000000000815260040161112b90611d6c565b60405180910390fd5b50505050565b606060405180602001604052806000815250905090565b60606000821415611199576040518060400160405280600181526020017f300000000000000000000000000000000000000000000000000000000000000081525090506112f9565b600082905060005b600082146111cb5780806111b4906121b4565b915050600a826111c49190612036565b91506111a1565b60008167ffffffffffffffff81111561120d577f4e487b7100000000000000000000000000000000000000000000000000000000600052604160045260246000fd5b6040519080825280601f01601f19166020018201604052801561123f5781602001600182028036833780820191505090505b5090505b600085146112f2576001826112589190612067565b9150600a8561126791906121fd565b60306112739190611fe0565b60f81b8183815181106112af577f4e487b7100000000000000000000000000000000000000000000000000000000600052603260045260246000fd5b60200101907effffffffffffffffffffffffffffffffffffffffffffffffffffffffffffff1916908160001a905350600a856112eb9190612036565b9450611243565b8093505050505b919050565b505050565b505050565b61131283836114fa565b61131f6000848484611363565b61135e576040517f08c379a000000000000000000000000000000000000000000000000000000000815260040161135590611d6c565b60405180910390fd5b505050565b60006113848473ffffffffffffffffffffffffffffffffffffffff166116d4565b156114ed578373ffffffffffffffffffffffffffffffffffffffff1663150b7a026113ad610b29565b8786866040518563ffffffff1660e01b81526004016113cf9493929190611ce3565b602060405180830381600087803b1580156113e957600080fd5b505af192505050801561141a57506040513d601f19601f820116820180604052508101906114179190611998565b60015b61149d573d806000811461144a576040519150601f19603f3d011682016040523d82523d6000602084013e61144f565b606091505b50600081511415611495576040517f08c379a000000000000000000000000000000000000000000000000000000000815260040161148c90611d6c565b60405180910390fd5b805181602001fd5b63150b7a0260e01b7bffffffffffffffffffffffffffffffffffffffffffffffffffffffff1916817bffffffffffffffffffffffffffffffffffffffffffffffffffffffff1916149150506114f2565b600190505b949350505050565b600073ffffffffffffffffffffffffffffffffffffffff168273ffffffffffffffffffffffffffffffffffffffff16141561156a576040517f08c379a000000000000000000000000000000000000000000000000000000000815260040161156190611e8c565b60405180910390fd5b61157381610abd565b156115b3576040517f08c379a00000000000000000000000000000000000000000000000000000000081526004016115aa90611dac565b60405180910390fd5b6115bf600083836112fe565b6001600360008473ffffffffffffffffffffffffffffffffffffffff1673ffffffffffffffffffffffffffffffffffffffff168152602001908152602001600020600082825461160f9190611fe0565b92505081905550816002600083815260200190815260200160002060006101000a81548173ffffffffffffffffffffffffffffffffffffffff021916908373ffffffffffffffffffffffffffffffffffffffff160217905550808273ffffffffffffffffffffffffffffffffffffffff16600073ffffffffffffffffffffffffffffffffffffffff167fddf252ad1be2c89b69c2b068fc378daa952ba7f163c4a11628f55a4df523b3ef60405160405180910390a46116d060008383611303565b5050565b6000808273ffffffffffffffffffffffffffffffffffffffff163b119050919050565b600061170a61170584611f6c565b611f47565b90508281526020810184848401111561172257600080fd5b61172d84828561210f565b509392505050565b600081359050611744816126db565b92915050565b600081359050611759816126f2565b92915050565b60008135905061176e81612709565b92915050565b60008151905061178381612709565b92915050565b600082601f83011261179a57600080fd5b81356117aa8482602086016116f7565b91505092915050565b6000813590506117c281612720565b92915050565b6000602082840312156117da57600080fd5b60006117e884828501611735565b91505092915050565b6000806040838503121561180457600080fd5b600061181285828601611735565b925050602061182385828601611735565b9150509250929050565b60008060006060848603121561184257600080fd5b600061185086828701611735565b935050602061186186828701611735565b9250506040611872868287016117b3565b9150509250925092565b6000806000806080858703121561189257600080fd5b60006118a087828801611735565b94505060206118b187828801611735565b93505060406118c2878288016117b3565b925050606085013567ffffffffffffffff8111156118df57600080fd5b6118eb87828801611789565b91505092959194509250565b6000806040838503121561190a57600080fd5b600061191885828601611735565b92505060206119298582860161174a565b9150509250929050565b6000806040838503121561194657600080fd5b600061195485828601611735565b9250506020611965858286016117b3565b9150509250929050565b60006020828403121561198157600080fd5b600061198f8482850161175f565b91505092915050565b6000602082840312156119aa57600080fd5b60006119b884828501611774565b91505092915050565b6000602082840312156119d357600080fd5b60006119e1848285016117b3565b91505092915050565b6119f38161209b565b82525050565b611a02816120ad565b82525050565b6000611a1382611f9d565b611a1d8185611fb3565b9350611a2d81856020860161211e565b611a36816122ea565b840191505092915050565b6000611a4c82611fa8565b611a568185611fc4565b9350611a6681856020860161211e565b611a6f816122ea565b840191505092915050565b6000611a8582611fa8565b611a8f8185611fd5565b9350611a9f81856020860161211e565b80840191505092915050565b6000611ab8603283611fc4565b9150611ac3826122fb565b604082019050919050565b6000611adb602583611fc4565b9150611ae68261234a565b604082019050919050565b6000611afe601c83611fc4565b9150611b0982612399565b602082019050919050565b6000611b21602483611fc4565b9150611b2c826123c2565b604082019050919050565b6000611b44601983611fc4565b9150611b4f82612411565b602082019050919050565b6000611b67602c83611fc4565b9150611b728261243a565b604082019050919050565b6000611b8a603883611fc4565b9150611b9582612489565b604082019050919050565b6000611bad602a83611fc4565b9150611bb8826124d8565b604082019050919050565b6000611bd0602983611fc4565b9150611bdb82612527565b604082019050919050565b6000611bf3602083611fc4565b9150611bfe82612576565b602082019050919050565b6000611c16602c83611fc4565b9150611c218261259f565b604082019050919050565b6000611c39602f83611fc4565b9150611c44826125ee565b604082019050919050565b6000611c5c602183611fc4565b9150611c678261263d565b604082019050919050565b6000611c7f603183611fc4565b9150611c8a8261268c565b604082019050919050565b611c9e81612105565b82525050565b6000611cb08285611a7a565b9150611cbc8284611a7a565b91508190509392505050565b6000602082019050611cdd60008301846119ea565b92915050565b6000608082019050611cf860008301876119ea565b611d0560208301866119ea565b611d126040830185611c95565b8181036060830152611d248184611a08565b905095945050505050565b6000602082019050611d4460008301846119f9565b92915050565b60006020820190508181036000830152611d648184611a41565b905092915050565b60006020820190508181036000830152611d8581611aab565b9050919050565b60006020820190508181036000830152611da581611ace565b9050919050565b60006020820190508181036000830152611dc581611af1565b9050919050565b60006020820190508181036000830152611de581611b14565b9050919050565b60006020820190508181036000830152611e0581611b37565b9050919050565b60006020820190508181036000830152611e2581611b5a565b9050919050565b60006020820190508181036000830152611e4581611b7d565b9050919050565b60006020820190508181036000830152611e6581611ba0565b9050919050565b60006020820190508181036000830152611e8581611bc3565b9050919050565b60006020820190508181036000830152611ea581611be6565b9050919050565b60006020820190508181036000830152611ec581611c09565b9050919050565b60006020820190508181036000830152611ee581611c2c565b9050919050565b60006020820190508181036000830152611f0581611c4f565b9050919050565b60006020820190508181036000830152611f2581611c72565b9050919050565b6000602082019050611f416000830184611c95565b92915050565b6000611f51611f62565b9050611f5d8282612183565b919050565b6000604051905090565b600067ffffffffffffffff821115611f8757611f866122bb565b5b611f90826122ea565b9050602081019050919050565b600081519050919050565b600081519050919050565b600082825260208201905092915050565b600082825260208201905092915050565b600081905092915050565b6000611feb82612105565b9150611ff683612105565b9250827fffffffffffffffffffffffffffffffffffffffffffffffffffffffffffffffff0382111561202b5761202a61222e565b5b828201905092915050565b600061204182612105565b915061204c83612105565b92508261205c5761205b61225d565b5b828204905092915050565b600061207282612105565b915061207d83612105565b9250828210156120905761208f61222e565b5b828203905092915050565b60006120a6826120e5565b9050919050565b60008115159050919050565b60007fffffffff0000000000000000000000000000000000000000000000000000000082169050919050565b600073ffffffffffffffffffffffffffffffffffffffff82169050919050565b6000819050919050565b82818337600083830152505050565b60005b8381101561213c578082015181840152602081019050612121565b8381111561214b576000848401525b50505050565b6000600282049050600182168061216957607f821691505b6020821081141561217d5761217c61228c565b5b50919050565b61218c826122ea565b810181811067ffffffffffffffff821117156121ab576121aa6122bb565b5b80604052505050565b60006121bf82612105565b91507fffffffffffffffffffffffffffffffffffffffffffffffffffffffffffffffff8214156121f2576121f161222e565b5b600182019050919050565b600061220882612105565b915061221383612105565b9250826122235761222261225d565b5b828206905092915050565b7f4e487b7100000000000000000000000000000000000000000000000000000000600052601160045260246000fd5b7f4e487b7100000000000000000000000000000000000000000000000000000000600052601260045260246000fd5b7f4e487b7100000000000000000000000000000000000000000000000000000000600052602260045260246000fd5b7f4e487b7100000000000000000000000000000000000000000000000000000000600052604160045260246000fd5b6000601f19601f8301169050919050565b7f4552433732313a207472616e7366657220746f206e6f6e20455243373231526560008201527f63656976657220696d706c656d656e7465720000000000000000000000000000602082015250565b7f4552433732313a207472616e736665722066726f6d20696e636f72726563742060008201527f6f776e6572000000000000000000000000000000000000000000000000000000602082015250565b7f4552433732313a20746f6b656e20616c7265616479206d696e74656400000000600082015250565b7f4552433732313a207472616e7366657220746f20746865207a65726f2061646460008201527f7265737300000000000000000000000000000000000000000000000000000000602082015250565b7f4552433732313a20617070726f766520746f2063616c6c657200000000000000600082015250565b7f4552433732313a206f70657261746f7220717565727920666f72206e6f6e657860008201527f697374656e7420746f6b656e0000000000000000000000000000000000000000602082015250565b7f4552433732313a20617070726f76652063616c6c6572206973206e6f74206f7760008201527f6e6572206e6f7220617070726f76656420666f7220616c6c0000000000000000602082015250565b7f4552433732313a2062616c616e636520717565727920666f7220746865207a6560008201527f726f206164647265737300000000000000000000000000000000000000000000602082015250565b7f4552433732313a206f776e657220717565727920666f72206e6f6e657869737460008201527f656e7420746f6b656e0000000000000000000000000000000000000000000000602082015250565b7f4552433732313a206d696e7420746f20746865207a65726f2061646472657373600082015250565b7f4552433732313a20617070726f76656420717565727920666f72206e6f6e657860008201527f697374656e7420746f6b656e0000000000000000000000000000000000000000602082015250565b7f4552433732314d657461646174613a2055524920717565727920666f72206e6f60008201527f6e6578697374656e7420746f6b656e0000000000000000000000000000000000602082015250565b7f4552433732313a20617070726f76616c20746f2063757272656e74206f776e6560008201527f7200000000000000000000000000000000000000000000000000000000000000602082015250565b7f4552433732313a207472616e736665722063616c6c6572206973206e6f74206f60008201527f776e6572206e6f7220617070726f766564000000000000000000000000000000602082015250565b6126e48161209b565b81146126ef57600080fd5b50565b6126fb816120ad565b811461270657600080fd5b50565b612712816120b9565b811461271d57600080fd5b50565b61272981612105565b811461273457600080fd5b5056fea264697066735822122005a0037fcf953bf476379536a271a2d0feac2ff079e9d4c63af81c47d887bad164736f6c63430008040033",
  "linkReferences": {},
  "deployedLinkReferences": {}
}