{
  "_format": "hh-sol-artifact-1",
  "contractName": "Source",
  "sourceName": "contracts/Source.sol",
  "abi": [
    {
      "inputs": [
        {
          "internalType": "uint256",
          "name": "myFunctionParam",
          "type": "uint256"
        }
      ],
      "name": "doSomething",
      "outputs": [],
      "stateMutability": "nonpayable",
      "type": "function"
    },
    {
      "inputs": [],
      "name": "x",
      "outputs": [
        {
          "internalType": "uint256",
          "name": "",
          "type": "uint256"
        }
      ],
      "stateMutability": "view",
      "type": "function"
    }
  ],
  "bytecode": "0x6080604052600260005534801561001557600080fd5b50610133806100256000396000f3fe6080604052348015600f57600080fd5b506004361060325760003560e01c80630c55699c146037578063a6b206bf146051575b600080fd5b603d6069565b604051604891906090565b60405180910390f35b606760048036038101906063919060d5565b606f565b005b60005481565b8060008190555050565b6000819050919050565b608a816079565b82525050565b600060208201905060a360008301846083565b92915050565b600080fd5b60b5816079565b811460bf57600080fd5b50565b60008135905060cf8160ae565b92915050565b60006020828403121560e85760e760a9565b5b600060f48482850160c2565b9150509291505056fea264697066735822122098d05c23fd7640b54d35cc9ce82f82ca707c070d751403b4ef4dd7345e95333164736f6c63430008090033",
  "linkReferences": {},
  "deployedLinkReferences": {}
}