{
  "_format": "hh-sol-artifact-1",
  "contractName": "SourceWrapperManager",
  "sourceName": "contracts/SourceWrapperManager.sol",
  "abi": [
    {
      "inputs": [
        {
          "internalType": "address",
          "name": "initialOwner",
          "type": "address"
        },
        {
          "internalType": "uint256",
          "name": "destRollup",
          "type": "uint256"
        },
        {
          "internalType": "address",
          "name": "tokenAddress",
          "type": "address"
        },
        {
          "internalType": "uint256",
          "name": "tokenId",
          "type": "uint256"
        }
      ],
      "name": "send",
      "outputs": [],
      "stateMutability": "nonpayable",
      "type": "function"
    }
  ],
  "bytecode": "0x608060405234801561001057600080fd5b50610531806100206000396000f3fe608060405234801561001057600080fd5b506004361061002b5760003560e01c80637c1779dc14610030575b600080fd5b61004a6004803603810190610045919061024f565b61004c565b005b8173ffffffffffffffffffffffffffffffffffffffff16636352211e826040518263ffffffff1660e01b815260040161008591906103b5565b60206040518083038186803b15801561009d57600080fd5b505afa1580156100b1573d6000803e3d6000fd5b505050506040513d601f19601f820116820180604052508101906100d59190610226565b73ffffffffffffffffffffffffffffffffffffffff163373ffffffffffffffffffffffffffffffffffffffff1614610142576040517f08c379a000000000000000000000000000000000000000000000000000000000815260040161013990610395565b60405180910390fd5b600082858360405160200161015993929190610321565b6040516020818303038152906040528051906020012090508273ffffffffffffffffffffffffffffffffffffffff166323b872dd8630856040518463ffffffff1660e01b81526004016101ae9392919061035e565b600060405180830381600087803b1580156101c857600080fd5b505af11580156101dc573d6000803e3d6000fd5b505050505050505050565b6000813590506101f6816104cd565b92915050565b60008151905061020b816104cd565b92915050565b600081359050610220816104e4565b92915050565b60006020828403121561023857600080fd5b6000610246848285016101fc565b91505092915050565b6000806000806080858703121561026557600080fd5b6000610273878288016101e7565b945050602061028487828801610211565b9350506040610295878288016101e7565b92505060606102a687828801610211565b91505092959194509250565b6102bb816103e1565b82525050565b6102d26102cd826103e1565b61041d565b82525050565b60006102e56042836103d0565b91506102f082610458565b606082019050919050565b61030481610413565b82525050565b61031b61031682610413565b610441565b82525050565b600061032d82866102c1565b60148201915061033d82856102c1565b60148201915061034d828461030a565b602082019150819050949350505050565b600060608201905061037360008301866102b2565b61038060208301856102b2565b61038d60408301846102fb565b949350505050565b600060208201905081810360008301526103ae816102d8565b9050919050565b60006020820190506103ca60008301846102fb565b92915050565b600082825260208201905092915050565b60006103ec826103f3565b9050919050565b600073ffffffffffffffffffffffffffffffffffffffff82169050919050565b6000819050919050565b60006104288261042f565b9050919050565b600061043a8261044b565b9050919050565b6000819050919050565b60008160601b9050919050565b7f536f75726365577261707065724d616e616765723a2073656e642066756e637460008201527f696f6e206d7573742062652063616c6c6564206279206f776e6572206f66206e60208201527f6674000000000000000000000000000000000000000000000000000000000000604082015250565b6104d6816103e1565b81146104e157600080fd5b50565b6104ed81610413565b81146104f857600080fd5b5056fea26469706673582212205d38d974fc78540c71b6254d46bf463619553604865ba782a2a785a6aba48b7264736f6c63430008040033",
  "linkReferences": {},
  "deployedLinkReferences": {}
}