{
  "_format": "hh-sol-artifact-1",
  "contractName": "SourceWrapperManager",
  "sourceName": "contracts/SourceWrapperManager.sol",
  "abi": [
    {
      "inputs": [
        {
          "internalType": "address",
          "name": "initialOwner",
          "type": "address"
        },
        {
          "internalType": "uint256",
          "name": "destRollup",
          "type": "uint256"
        },
        {
          "internalType": "address",
          "name": "tokenContract",
          "type": "address"
        },
        {
          "internalType": "uint256",
          "name": "tokenId",
          "type": "uint256"
        }
      ],
      "name": "send",
      "outputs": [],
      "stateMutability": "nonpayable",
      "type": "function"
    }
  ],
  "bytecode": "0x608060405234801561001057600080fd5b5061047c806100206000396000f3fe608060405234801561001057600080fd5b506004361061002b5760003560e01c80637c1779dc14610030575b600080fd5b61004a600480360381019061004591906101e0565b61004c565b005b8173ffffffffffffffffffffffffffffffffffffffff16636352211e826040518263ffffffff1660e01b81526004016100859190610300565b60206040518083038186803b15801561009d57600080fd5b505afa1580156100b1573d6000803e3d6000fd5b505050506040513d601f19601f820116820180604052508101906100d591906101b7565b73ffffffffffffffffffffffffffffffffffffffff163373ffffffffffffffffffffffffffffffffffffffff1614610142576040517f08c379a0000000000000000000000000000000000000000000000000000000008152600401610139906102e0565b60405180910390fd5b6000828583604051602001610159939291906102a3565b6040516020818303038152906040528051906020012090505050505050565b60008135905061018781610418565b92915050565b60008151905061019c81610418565b92915050565b6000813590506101b18161042f565b92915050565b6000602082840312156101c957600080fd5b60006101d78482850161018d565b91505092915050565b600080600080608085870312156101f657600080fd5b600061020487828801610178565b9450506020610215878288016101a2565b935050604061022687828801610178565b9250506060610237878288016101a2565b91505092959194509250565b61025461024f8261032c565b610368565b82525050565b600061026760428361031b565b9150610272826103a3565b606082019050919050565b6102868161035e565b82525050565b61029d6102988261035e565b61038c565b82525050565b60006102af8286610243565b6014820191506102bf8285610243565b6014820191506102cf828461028c565b602082019150819050949350505050565b600060208201905081810360008301526102f98161025a565b9050919050565b6000602082019050610315600083018461027d565b92915050565b600082825260208201905092915050565b60006103378261033e565b9050919050565b600073ffffffffffffffffffffffffffffffffffffffff82169050919050565b6000819050919050565b60006103738261037a565b9050919050565b600061038582610396565b9050919050565b6000819050919050565b60008160601b9050919050565b7f536f75726365577261707065724d616e616765723a2073656e642066756e637460008201527f696f6e206d7573742062652063616c6c6564206279206f776e6572206f66206e60208201527f6674000000000000000000000000000000000000000000000000000000000000604082015250565b6104218161032c565b811461042c57600080fd5b50565b6104388161035e565b811461044357600080fd5b5056fea264697066735822122039d437897037cadb3da40174efdca3a9bb3e4787d7ac270cefed9364e80246eb64736f6c63430008040033",
  "linkReferences": {},
  "deployedLinkReferences": {}
}