{
  "_format": "hh-sol-artifact-1",
  "contractName": "Dest",
  "sourceName": "contracts/Dest.sol",
  "abi": [
    {
      "inputs": [
        {
          "internalType": "address",
          "name": "sourceAddress",
          "type": "address"
        },
        {
          "internalType": "uint256",
          "name": "myFunctionParam",
          "type": "uint256"
        }
      ],
      "name": "doTheThing",
      "outputs": [],
      "stateMutability": "nonpayable",
      "type": "function"
    }
  ],
  "bytecode": "0x60806040527342000000000000000000000000000000000000076000806101000a81548173ffffffffffffffffffffffffffffffffffffffff021916908373ffffffffffffffffffffffffffffffffffffffff16021790555034801561006457600080fd5b506103e3806100746000396000f3fe608060405234801561001057600080fd5b506004361061002b5760003560e01c80638fd977a714610030575b600080fd5b61004a60048036038101906100459190610208565b61004c565b005b60008054906101000a900473ffffffffffffffffffffffffffffffffffffffff1673ffffffffffffffffffffffffffffffffffffffff16633dbb202b838360405160240161009a9190610257565b6040516020818303038152906040527fa6b206bf000000000000000000000000000000000000000000000000000000007bffffffffffffffffffffffffffffffffffffffffffffffffffffffff19166020820180517bffffffffffffffffffffffffffffffffffffffffffffffffffffffff8381831617835250505050620f42406040518463ffffffff1660e01b81526004016101399392919061036f565b600060405180830381600087803b15801561015357600080fd5b505af1158015610167573d6000803e3d6000fd5b505050505050565b600080fd5b600073ffffffffffffffffffffffffffffffffffffffff82169050919050565b600061019f82610174565b9050919050565b6101af81610194565b81146101ba57600080fd5b50565b6000813590506101cc816101a6565b92915050565b6000819050919050565b6101e5816101d2565b81146101f057600080fd5b50565b600081359050610202816101dc565b92915050565b6000806040838503121561021f5761021e61016f565b5b600061022d858286016101bd565b925050602061023e858286016101f3565b9150509250929050565b610251816101d2565b82525050565b600060208201905061026c6000830184610248565b92915050565b61027b81610194565b82525050565b600081519050919050565b600082825260208201905092915050565b60005b838110156102bb5780820151818401526020810190506102a0565b838111156102ca576000848401525b50505050565b6000601f19601f8301169050919050565b60006102ec82610281565b6102f6818561028c565b935061030681856020860161029d565b61030f816102d0565b840191505092915050565b6000819050919050565b600063ffffffff82169050919050565b6000819050919050565b600061035961035461034f8461031a565b610334565b610324565b9050919050565b6103698161033e565b82525050565b60006060820190506103846000830186610272565b818103602083015261039681856102e1565b90506103a56040830184610360565b94935050505056fea2646970667358221220e195a1e1e2ebf020e3e919173e0997ae081df4b17c001a83a1a28840cd78937464736f6c63430008090033",
  "linkReferences": {},
  "deployedLinkReferences": {}
}