{
  "contracts/SourceWrapperManager.sol": {
    "SourceWrapperManager": {
      "abi": [
        {
          "inputs": [
            {
              "internalType": "address",
              "name": "initialOwner",
              "type": "address"
            },
            {
              "internalType": "uint256",
              "name": "destRollup",
              "type": "uint256"
            },
            {
              "internalType": "address",
              "name": "tokenAddress",
              "type": "address"
            },
            {
              "internalType": "uint256",
              "name": "tokenId",
              "type": "uint256"
            }
          ],
          "name": "send",
          "outputs": [],
          "stateMutability": "nonpayable",
          "type": "function"
        }
      ],
      "evm": {
        "bytecode": {
          "linkReferences": {},
          "object": "608060405234801561001057600080fd5b50610531806100206000396000f3fe608060405234801561001057600080fd5b506004361061002b5760003560e01c80637c1779dc14610030575b600080fd5b61004a6004803603810190610045919061024f565b61004c565b005b8173ffffffffffffffffffffffffffffffffffffffff16636352211e826040518263ffffffff1660e01b815260040161008591906103b5565b60206040518083038186803b15801561009d57600080fd5b505afa1580156100b1573d6000803e3d6000fd5b505050506040513d601f19601f820116820180604052508101906100d59190610226565b73ffffffffffffffffffffffffffffffffffffffff163373ffffffffffffffffffffffffffffffffffffffff1614610142576040517f08c379a000000000000000000000000000000000000000000000000000000000815260040161013990610395565b60405180910390fd5b600082858360405160200161015993929190610321565b6040516020818303038152906040528051906020012090508273ffffffffffffffffffffffffffffffffffffffff166323b872dd8630856040518463ffffffff1660e01b81526004016101ae9392919061035e565b600060405180830381600087803b1580156101c857600080fd5b505af11580156101dc573d6000803e3d6000fd5b505050505050505050565b6000813590506101f6816104cd565b92915050565b60008151905061020b816104cd565b92915050565b600081359050610220816104e4565b92915050565b60006020828403121561023857600080fd5b6000610246848285016101fc565b91505092915050565b6000806000806080858703121561026557600080fd5b6000610273878288016101e7565b945050602061028487828801610211565b9350506040610295878288016101e7565b92505060606102a687828801610211565b91505092959194509250565b6102bb816103e1565b82525050565b6102d26102cd826103e1565b61041d565b82525050565b60006102e56042836103d0565b91506102f082610458565b606082019050919050565b61030481610413565b82525050565b61031b61031682610413565b610441565b82525050565b600061032d82866102c1565b60148201915061033d82856102c1565b60148201915061034d828461030a565b602082019150819050949350505050565b600060608201905061037360008301866102b2565b61038060208301856102b2565b61038d60408301846102fb565b949350505050565b600060208201905081810360008301526103ae816102d8565b9050919050565b60006020820190506103ca60008301846102fb565b92915050565b600082825260208201905092915050565b60006103ec826103f3565b9050919050565b600073ffffffffffffffffffffffffffffffffffffffff82169050919050565b6000819050919050565b60006104288261042f565b9050919050565b600061043a8261044b565b9050919050565b6000819050919050565b60008160601b9050919050565b7f536f75726365577261707065724d616e616765723a2073656e642066756e637460008201527f696f6e206d7573742062652063616c6c6564206279206f776e6572206f66206e60208201527f6674000000000000000000000000000000000000000000000000000000000000604082015250565b6104d6816103e1565b81146104e157600080fd5b50565b6104ed81610413565b81146104f857600080fd5b5056fea26469706673582212205d38d974fc78540c71b6254d46bf463619553604865ba782a2a785a6aba48b7264736f6c63430008040033",
          "opcodes": "PUSH1 0x80 PUSH1 0x40 MSTORE CALLVALUE DUP1 ISZERO PUSH2 0x10 JUMPI PUSH1 0x0 DUP1 REVERT JUMPDEST POP PUSH2 0x531 DUP1 PUSH2 0x20 PUSH1 0x0 CODECOPY PUSH1 0x0 RETURN INVALID PUSH1 0x80 PUSH1 0x40 MSTORE CALLVALUE DUP1 ISZERO PUSH2 0x10 JUMPI PUSH1 0x0 DUP1 REVERT JUMPDEST POP PUSH1 0x4 CALLDATASIZE LT PUSH2 0x2B JUMPI PUSH1 0x0 CALLDATALOAD PUSH1 0xE0 SHR DUP1 PUSH4 0x7C1779DC EQ PUSH2 0x30 JUMPI JUMPDEST PUSH1 0x0 DUP1 REVERT JUMPDEST PUSH2 0x4A PUSH1 0x4 DUP1 CALLDATASIZE SUB DUP2 ADD SWAP1 PUSH2 0x45 SWAP2 SWAP1 PUSH2 0x24F JUMP JUMPDEST PUSH2 0x4C JUMP JUMPDEST STOP JUMPDEST DUP2 PUSH20 0xFFFFFFFFFFFFFFFFFFFFFFFFFFFFFFFFFFFFFFFF AND PUSH4 0x6352211E DUP3 PUSH1 0x40 MLOAD DUP3 PUSH4 0xFFFFFFFF AND PUSH1 0xE0 SHL DUP2 MSTORE PUSH1 0x4 ADD PUSH2 0x85 SWAP2 SWAP1 PUSH2 0x3B5 JUMP JUMPDEST PUSH1 0x20 PUSH1 0x40 MLOAD DUP1 DUP4 SUB DUP2 DUP7 DUP1 EXTCODESIZE ISZERO DUP1 ISZERO PUSH2 0x9D JUMPI PUSH1 0x0 DUP1 REVERT JUMPDEST POP GAS STATICCALL ISZERO DUP1 ISZERO PUSH2 0xB1 JUMPI RETURNDATASIZE PUSH1 0x0 DUP1 RETURNDATACOPY RETURNDATASIZE PUSH1 0x0 REVERT JUMPDEST POP POP POP POP PUSH1 0x40 MLOAD RETURNDATASIZE PUSH1 0x1F NOT PUSH1 0x1F DUP3 ADD AND DUP3 ADD DUP1 PUSH1 0x40 MSTORE POP DUP2 ADD SWAP1 PUSH2 0xD5 SWAP2 SWAP1 PUSH2 0x226 JUMP JUMPDEST PUSH20 0xFFFFFFFFFFFFFFFFFFFFFFFFFFFFFFFFFFFFFFFF AND CALLER PUSH20 0xFFFFFFFFFFFFFFFFFFFFFFFFFFFFFFFFFFFFFFFF AND EQ PUSH2 0x142 JUMPI PUSH1 0x40 MLOAD PUSH32 0x8C379A000000000000000000000000000000000000000000000000000000000 DUP2 MSTORE PUSH1 0x4 ADD PUSH2 0x139 SWAP1 PUSH2 0x395 JUMP JUMPDEST PUSH1 0x40 MLOAD DUP1 SWAP2 SUB SWAP1 REVERT JUMPDEST PUSH1 0x0 DUP3 DUP6 DUP4 PUSH1 0x40 MLOAD PUSH1 0x20 ADD PUSH2 0x159 SWAP4 SWAP3 SWAP2 SWAP1 PUSH2 0x321 JUMP JUMPDEST PUSH1 0x40 MLOAD PUSH1 0x20 DUP2 DUP4 SUB SUB DUP2 MSTORE SWAP1 PUSH1 0x40 MSTORE DUP1 MLOAD SWAP1 PUSH1 0x20 ADD KECCAK256 SWAP1 POP DUP3 PUSH20 0xFFFFFFFFFFFFFFFFFFFFFFFFFFFFFFFFFFFFFFFF AND PUSH4 0x23B872DD DUP7 ADDRESS DUP6 PUSH1 0x40 MLOAD DUP5 PUSH4 0xFFFFFFFF AND PUSH1 0xE0 SHL DUP2 MSTORE PUSH1 0x4 ADD PUSH2 0x1AE SWAP4 SWAP3 SWAP2 SWAP1 PUSH2 0x35E JUMP JUMPDEST PUSH1 0x0 PUSH1 0x40 MLOAD DUP1 DUP4 SUB DUP2 PUSH1 0x0 DUP8 DUP1 EXTCODESIZE ISZERO DUP1 ISZERO PUSH2 0x1C8 JUMPI PUSH1 0x0 DUP1 REVERT JUMPDEST POP GAS CALL ISZERO DUP1 ISZERO PUSH2 0x1DC JUMPI RETURNDATASIZE PUSH1 0x0 DUP1 RETURNDATACOPY RETURNDATASIZE PUSH1 0x0 REVERT JUMPDEST POP POP POP POP POP POP POP POP POP JUMP JUMPDEST PUSH1 0x0 DUP2 CALLDATALOAD SWAP1 POP PUSH2 0x1F6 DUP2 PUSH2 0x4CD JUMP JUMPDEST SWAP3 SWAP2 POP POP JUMP JUMPDEST PUSH1 0x0 DUP2 MLOAD SWAP1 POP PUSH2 0x20B DUP2 PUSH2 0x4CD JUMP JUMPDEST SWAP3 SWAP2 POP POP JUMP JUMPDEST PUSH1 0x0 DUP2 CALLDATALOAD SWAP1 POP PUSH2 0x220 DUP2 PUSH2 0x4E4 JUMP JUMPDEST SWAP3 SWAP2 POP POP JUMP JUMPDEST PUSH1 0x0 PUSH1 0x20 DUP3 DUP5 SUB SLT ISZERO PUSH2 0x238 JUMPI PUSH1 0x0 DUP1 REVERT JUMPDEST PUSH1 0x0 PUSH2 0x246 DUP5 DUP3 DUP6 ADD PUSH2 0x1FC JUMP JUMPDEST SWAP2 POP POP SWAP3 SWAP2 POP POP JUMP JUMPDEST PUSH1 0x0 DUP1 PUSH1 0x0 DUP1 PUSH1 0x80 DUP6 DUP8 SUB SLT ISZERO PUSH2 0x265 JUMPI PUSH1 0x0 DUP1 REVERT JUMPDEST PUSH1 0x0 PUSH2 0x273 DUP8 DUP3 DUP9 ADD PUSH2 0x1E7 JUMP JUMPDEST SWAP5 POP POP PUSH1 0x20 PUSH2 0x284 DUP8 DUP3 DUP9 ADD PUSH2 0x211 JUMP JUMPDEST SWAP4 POP POP PUSH1 0x40 PUSH2 0x295 DUP8 DUP3 DUP9 ADD PUSH2 0x1E7 JUMP JUMPDEST SWAP3 POP POP PUSH1 0x60 PUSH2 0x2A6 DUP8 DUP3 DUP9 ADD PUSH2 0x211 JUMP JUMPDEST SWAP2 POP POP SWAP3 SWAP6 SWAP2 SWAP5 POP SWAP3 POP JUMP JUMPDEST PUSH2 0x2BB DUP2 PUSH2 0x3E1 JUMP JUMPDEST DUP3 MSTORE POP POP JUMP JUMPDEST PUSH2 0x2D2 PUSH2 0x2CD DUP3 PUSH2 0x3E1 JUMP JUMPDEST PUSH2 0x41D JUMP JUMPDEST DUP3 MSTORE POP POP JUMP JUMPDEST PUSH1 0x0 PUSH2 0x2E5 PUSH1 0x42 DUP4 PUSH2 0x3D0 JUMP JUMPDEST SWAP2 POP PUSH2 0x2F0 DUP3 PUSH2 0x458 JUMP JUMPDEST PUSH1 0x60 DUP3 ADD SWAP1 POP SWAP2 SWAP1 POP JUMP JUMPDEST PUSH2 0x304 DUP2 PUSH2 0x413 JUMP JUMPDEST DUP3 MSTORE POP POP JUMP JUMPDEST PUSH2 0x31B PUSH2 0x316 DUP3 PUSH2 0x413 JUMP JUMPDEST PUSH2 0x441 JUMP JUMPDEST DUP3 MSTORE POP POP JUMP JUMPDEST PUSH1 0x0 PUSH2 0x32D DUP3 DUP7 PUSH2 0x2C1 JUMP JUMPDEST PUSH1 0x14 DUP3 ADD SWAP2 POP PUSH2 0x33D DUP3 DUP6 PUSH2 0x2C1 JUMP JUMPDEST PUSH1 0x14 DUP3 ADD SWAP2 POP PUSH2 0x34D DUP3 DUP5 PUSH2 0x30A JUMP JUMPDEST PUSH1 0x20 DUP3 ADD SWAP2 POP DUP2 SWAP1 POP SWAP5 SWAP4 POP POP POP POP JUMP JUMPDEST PUSH1 0x0 PUSH1 0x60 DUP3 ADD SWAP1 POP PUSH2 0x373 PUSH1 0x0 DUP4 ADD DUP7 PUSH2 0x2B2 JUMP JUMPDEST PUSH2 0x380 PUSH1 0x20 DUP4 ADD DUP6 PUSH2 0x2B2 JUMP JUMPDEST PUSH2 0x38D PUSH1 0x40 DUP4 ADD DUP5 PUSH2 0x2FB JUMP JUMPDEST SWAP5 SWAP4 POP POP POP POP JUMP JUMPDEST PUSH1 0x0 PUSH1 0x20 DUP3 ADD SWAP1 POP DUP2 DUP2 SUB PUSH1 0x0 DUP4 ADD MSTORE PUSH2 0x3AE DUP2 PUSH2 0x2D8 JUMP JUMPDEST SWAP1 POP SWAP2 SWAP1 POP JUMP JUMPDEST PUSH1 0x0 PUSH1 0x20 DUP3 ADD SWAP1 POP PUSH2 0x3CA PUSH1 0x0 DUP4 ADD DUP5 PUSH2 0x2FB JUMP JUMPDEST SWAP3 SWAP2 POP POP JUMP JUMPDEST PUSH1 0x0 DUP3 DUP3 MSTORE PUSH1 0x20 DUP3 ADD SWAP1 POP SWAP3 SWAP2 POP POP JUMP JUMPDEST PUSH1 0x0 PUSH2 0x3EC DUP3 PUSH2 0x3F3 JUMP JUMPDEST SWAP1 POP SWAP2 SWAP1 POP JUMP JUMPDEST PUSH1 0x0 PUSH20 0xFFFFFFFFFFFFFFFFFFFFFFFFFFFFFFFFFFFFFFFF DUP3 AND SWAP1 POP SWAP2 SWAP1 POP JUMP JUMPDEST PUSH1 0x0 DUP2 SWAP1 POP SWAP2 SWAP1 POP JUMP JUMPDEST PUSH1 0x0 PUSH2 0x428 DUP3 PUSH2 0x42F JUMP JUMPDEST SWAP1 POP SWAP2 SWAP1 POP JUMP JUMPDEST PUSH1 0x0 PUSH2 0x43A DUP3 PUSH2 0x44B JUMP JUMPDEST SWAP1 POP SWAP2 SWAP1 POP JUMP JUMPDEST PUSH1 0x0 DUP2 SWAP1 POP SWAP2 SWAP1 POP JUMP JUMPDEST PUSH1 0x0 DUP2 PUSH1 0x60 SHL SWAP1 POP SWAP2 SWAP1 POP JUMP JUMPDEST PUSH32 0x536F75726365577261707065724D616E616765723A2073656E642066756E6374 PUSH1 0x0 DUP3 ADD MSTORE PUSH32 0x696F6E206D7573742062652063616C6C6564206279206F776E6572206F66206E PUSH1 0x20 DUP3 ADD MSTORE PUSH32 0x6674000000000000000000000000000000000000000000000000000000000000 PUSH1 0x40 DUP3 ADD MSTORE POP JUMP JUMPDEST PUSH2 0x4D6 DUP2 PUSH2 0x3E1 JUMP JUMPDEST DUP2 EQ PUSH2 0x4E1 JUMPI PUSH1 0x0 DUP1 REVERT JUMPDEST POP JUMP JUMPDEST PUSH2 0x4ED DUP2 PUSH2 0x413 JUMP JUMPDEST DUP2 EQ PUSH2 0x4F8 JUMPI PUSH1 0x0 DUP1 REVERT JUMPDEST POP JUMP INVALID LOG2 PUSH5 0x6970667358 0x22 SLT KECCAK256 0x5D CODESIZE 0xD9 PUSH21 0xFC78540C71B6254D46BF463619553604865BA782A2 0xA7 DUP6 0xA6 0xAB LOG4 DUP12 PUSH19 0x64736F6C634300080400330000000000000000 "
        },
        "methodIdentifiers": {
          "send(address,uint256,address,uint256)": "7c1779dc"
        }
      }
    }
  }
}