{
  "contracts/SourceWrapperManager.sol": {
    "SourceWrapperManager": {
      "abi": [
        {
          "inputs": [
            {
              "internalType": "address",
              "name": "initialOwner",
              "type": "address"
            },
            {
              "internalType": "uint256",
              "name": "destRollup",
              "type": "uint256"
            },
            {
              "internalType": "address",
              "name": "tokenContract",
              "type": "address"
            },
            {
              "internalType": "uint256",
              "name": "tokenId",
              "type": "uint256"
            }
          ],
          "name": "send",
          "outputs": [],
          "stateMutability": "nonpayable",
          "type": "function"
        }
      ],
      "evm": {
        "bytecode": {
          "linkReferences": {},
          "object": "608060405234801561001057600080fd5b5061047c806100206000396000f3fe608060405234801561001057600080fd5b506004361061002b5760003560e01c80637c1779dc14610030575b600080fd5b61004a600480360381019061004591906101e0565b61004c565b005b8173ffffffffffffffffffffffffffffffffffffffff16636352211e826040518263ffffffff1660e01b81526004016100859190610300565b60206040518083038186803b15801561009d57600080fd5b505afa1580156100b1573d6000803e3d6000fd5b505050506040513d601f19601f820116820180604052508101906100d591906101b7565b73ffffffffffffffffffffffffffffffffffffffff163373ffffffffffffffffffffffffffffffffffffffff1614610142576040517f08c379a0000000000000000000000000000000000000000000000000000000008152600401610139906102e0565b60405180910390fd5b6000828583604051602001610159939291906102a3565b6040516020818303038152906040528051906020012090505050505050565b60008135905061018781610418565b92915050565b60008151905061019c81610418565b92915050565b6000813590506101b18161042f565b92915050565b6000602082840312156101c957600080fd5b60006101d78482850161018d565b91505092915050565b600080600080608085870312156101f657600080fd5b600061020487828801610178565b9450506020610215878288016101a2565b935050604061022687828801610178565b9250506060610237878288016101a2565b91505092959194509250565b61025461024f8261032c565b610368565b82525050565b600061026760428361031b565b9150610272826103a3565b606082019050919050565b6102868161035e565b82525050565b61029d6102988261035e565b61038c565b82525050565b60006102af8286610243565b6014820191506102bf8285610243565b6014820191506102cf828461028c565b602082019150819050949350505050565b600060208201905081810360008301526102f98161025a565b9050919050565b6000602082019050610315600083018461027d565b92915050565b600082825260208201905092915050565b60006103378261033e565b9050919050565b600073ffffffffffffffffffffffffffffffffffffffff82169050919050565b6000819050919050565b60006103738261037a565b9050919050565b600061038582610396565b9050919050565b6000819050919050565b60008160601b9050919050565b7f536f75726365577261707065724d616e616765723a2073656e642066756e637460008201527f696f6e206d7573742062652063616c6c6564206279206f776e6572206f66206e60208201527f6674000000000000000000000000000000000000000000000000000000000000604082015250565b6104218161032c565b811461042c57600080fd5b50565b6104388161035e565b811461044357600080fd5b5056fea264697066735822122039d437897037cadb3da40174efdca3a9bb3e4787d7ac270cefed9364e80246eb64736f6c63430008040033",
          "opcodes": "PUSH1 0x80 PUSH1 0x40 MSTORE CALLVALUE DUP1 ISZERO PUSH2 0x10 JUMPI PUSH1 0x0 DUP1 REVERT JUMPDEST POP PUSH2 0x47C DUP1 PUSH2 0x20 PUSH1 0x0 CODECOPY PUSH1 0x0 RETURN INVALID PUSH1 0x80 PUSH1 0x40 MSTORE CALLVALUE DUP1 ISZERO PUSH2 0x10 JUMPI PUSH1 0x0 DUP1 REVERT JUMPDEST POP PUSH1 0x4 CALLDATASIZE LT PUSH2 0x2B JUMPI PUSH1 0x0 CALLDATALOAD PUSH1 0xE0 SHR DUP1 PUSH4 0x7C1779DC EQ PUSH2 0x30 JUMPI JUMPDEST PUSH1 0x0 DUP1 REVERT JUMPDEST PUSH2 0x4A PUSH1 0x4 DUP1 CALLDATASIZE SUB DUP2 ADD SWAP1 PUSH2 0x45 SWAP2 SWAP1 PUSH2 0x1E0 JUMP JUMPDEST PUSH2 0x4C JUMP JUMPDEST STOP JUMPDEST DUP2 PUSH20 0xFFFFFFFFFFFFFFFFFFFFFFFFFFFFFFFFFFFFFFFF AND PUSH4 0x6352211E DUP3 PUSH1 0x40 MLOAD DUP3 PUSH4 0xFFFFFFFF AND PUSH1 0xE0 SHL DUP2 MSTORE PUSH1 0x4 ADD PUSH2 0x85 SWAP2 SWAP1 PUSH2 0x300 JUMP JUMPDEST PUSH1 0x20 PUSH1 0x40 MLOAD DUP1 DUP4 SUB DUP2 DUP7 DUP1 EXTCODESIZE ISZERO DUP1 ISZERO PUSH2 0x9D JUMPI PUSH1 0x0 DUP1 REVERT JUMPDEST POP GAS STATICCALL ISZERO DUP1 ISZERO PUSH2 0xB1 JUMPI RETURNDATASIZE PUSH1 0x0 DUP1 RETURNDATACOPY RETURNDATASIZE PUSH1 0x0 REVERT JUMPDEST POP POP POP POP PUSH1 0x40 MLOAD RETURNDATASIZE PUSH1 0x1F NOT PUSH1 0x1F DUP3 ADD AND DUP3 ADD DUP1 PUSH1 0x40 MSTORE POP DUP2 ADD SWAP1 PUSH2 0xD5 SWAP2 SWAP1 PUSH2 0x1B7 JUMP JUMPDEST PUSH20 0xFFFFFFFFFFFFFFFFFFFFFFFFFFFFFFFFFFFFFFFF AND CALLER PUSH20 0xFFFFFFFFFFFFFFFFFFFFFFFFFFFFFFFFFFFFFFFF AND EQ PUSH2 0x142 JUMPI PUSH1 0x40 MLOAD PUSH32 0x8C379A000000000000000000000000000000000000000000000000000000000 DUP2 MSTORE PUSH1 0x4 ADD PUSH2 0x139 SWAP1 PUSH2 0x2E0 JUMP JUMPDEST PUSH1 0x40 MLOAD DUP1 SWAP2 SUB SWAP1 REVERT JUMPDEST PUSH1 0x0 DUP3 DUP6 DUP4 PUSH1 0x40 MLOAD PUSH1 0x20 ADD PUSH2 0x159 SWAP4 SWAP3 SWAP2 SWAP1 PUSH2 0x2A3 JUMP JUMPDEST PUSH1 0x40 MLOAD PUSH1 0x20 DUP2 DUP4 SUB SUB DUP2 MSTORE SWAP1 PUSH1 0x40 MSTORE DUP1 MLOAD SWAP1 PUSH1 0x20 ADD KECCAK256 SWAP1 POP POP POP POP POP POP JUMP JUMPDEST PUSH1 0x0 DUP2 CALLDATALOAD SWAP1 POP PUSH2 0x187 DUP2 PUSH2 0x418 JUMP JUMPDEST SWAP3 SWAP2 POP POP JUMP JUMPDEST PUSH1 0x0 DUP2 MLOAD SWAP1 POP PUSH2 0x19C DUP2 PUSH2 0x418 JUMP JUMPDEST SWAP3 SWAP2 POP POP JUMP JUMPDEST PUSH1 0x0 DUP2 CALLDATALOAD SWAP1 POP PUSH2 0x1B1 DUP2 PUSH2 0x42F JUMP JUMPDEST SWAP3 SWAP2 POP POP JUMP JUMPDEST PUSH1 0x0 PUSH1 0x20 DUP3 DUP5 SUB SLT ISZERO PUSH2 0x1C9 JUMPI PUSH1 0x0 DUP1 REVERT JUMPDEST PUSH1 0x0 PUSH2 0x1D7 DUP5 DUP3 DUP6 ADD PUSH2 0x18D JUMP JUMPDEST SWAP2 POP POP SWAP3 SWAP2 POP POP JUMP JUMPDEST PUSH1 0x0 DUP1 PUSH1 0x0 DUP1 PUSH1 0x80 DUP6 DUP8 SUB SLT ISZERO PUSH2 0x1F6 JUMPI PUSH1 0x0 DUP1 REVERT JUMPDEST PUSH1 0x0 PUSH2 0x204 DUP8 DUP3 DUP9 ADD PUSH2 0x178 JUMP JUMPDEST SWAP5 POP POP PUSH1 0x20 PUSH2 0x215 DUP8 DUP3 DUP9 ADD PUSH2 0x1A2 JUMP JUMPDEST SWAP4 POP POP PUSH1 0x40 PUSH2 0x226 DUP8 DUP3 DUP9 ADD PUSH2 0x178 JUMP JUMPDEST SWAP3 POP POP PUSH1 0x60 PUSH2 0x237 DUP8 DUP3 DUP9 ADD PUSH2 0x1A2 JUMP JUMPDEST SWAP2 POP POP SWAP3 SWAP6 SWAP2 SWAP5 POP SWAP3 POP JUMP JUMPDEST PUSH2 0x254 PUSH2 0x24F DUP3 PUSH2 0x32C JUMP JUMPDEST PUSH2 0x368 JUMP JUMPDEST DUP3 MSTORE POP POP JUMP JUMPDEST PUSH1 0x0 PUSH2 0x267 PUSH1 0x42 DUP4 PUSH2 0x31B JUMP JUMPDEST SWAP2 POP PUSH2 0x272 DUP3 PUSH2 0x3A3 JUMP JUMPDEST PUSH1 0x60 DUP3 ADD SWAP1 POP SWAP2 SWAP1 POP JUMP JUMPDEST PUSH2 0x286 DUP2 PUSH2 0x35E JUMP JUMPDEST DUP3 MSTORE POP POP JUMP JUMPDEST PUSH2 0x29D PUSH2 0x298 DUP3 PUSH2 0x35E JUMP JUMPDEST PUSH2 0x38C JUMP JUMPDEST DUP3 MSTORE POP POP JUMP JUMPDEST PUSH1 0x0 PUSH2 0x2AF DUP3 DUP7 PUSH2 0x243 JUMP JUMPDEST PUSH1 0x14 DUP3 ADD SWAP2 POP PUSH2 0x2BF DUP3 DUP6 PUSH2 0x243 JUMP JUMPDEST PUSH1 0x14 DUP3 ADD SWAP2 POP PUSH2 0x2CF DUP3 DUP5 PUSH2 0x28C JUMP JUMPDEST PUSH1 0x20 DUP3 ADD SWAP2 POP DUP2 SWAP1 POP SWAP5 SWAP4 POP POP POP POP JUMP JUMPDEST PUSH1 0x0 PUSH1 0x20 DUP3 ADD SWAP1 POP DUP2 DUP2 SUB PUSH1 0x0 DUP4 ADD MSTORE PUSH2 0x2F9 DUP2 PUSH2 0x25A JUMP JUMPDEST SWAP1 POP SWAP2 SWAP1 POP JUMP JUMPDEST PUSH1 0x0 PUSH1 0x20 DUP3 ADD SWAP1 POP PUSH2 0x315 PUSH1 0x0 DUP4 ADD DUP5 PUSH2 0x27D JUMP JUMPDEST SWAP3 SWAP2 POP POP JUMP JUMPDEST PUSH1 0x0 DUP3 DUP3 MSTORE PUSH1 0x20 DUP3 ADD SWAP1 POP SWAP3 SWAP2 POP POP JUMP JUMPDEST PUSH1 0x0 PUSH2 0x337 DUP3 PUSH2 0x33E JUMP JUMPDEST SWAP1 POP SWAP2 SWAP1 POP JUMP JUMPDEST PUSH1 0x0 PUSH20 0xFFFFFFFFFFFFFFFFFFFFFFFFFFFFFFFFFFFFFFFF DUP3 AND SWAP1 POP SWAP2 SWAP1 POP JUMP JUMPDEST PUSH1 0x0 DUP2 SWAP1 POP SWAP2 SWAP1 POP JUMP JUMPDEST PUSH1 0x0 PUSH2 0x373 DUP3 PUSH2 0x37A JUMP JUMPDEST SWAP1 POP SWAP2 SWAP1 POP JUMP JUMPDEST PUSH1 0x0 PUSH2 0x385 DUP3 PUSH2 0x396 JUMP JUMPDEST SWAP1 POP SWAP2 SWAP1 POP JUMP JUMPDEST PUSH1 0x0 DUP2 SWAP1 POP SWAP2 SWAP1 POP JUMP JUMPDEST PUSH1 0x0 DUP2 PUSH1 0x60 SHL SWAP1 POP SWAP2 SWAP1 POP JUMP JUMPDEST PUSH32 0x536F75726365577261707065724D616E616765723A2073656E642066756E6374 PUSH1 0x0 DUP3 ADD MSTORE PUSH32 0x696F6E206D7573742062652063616C6C6564206279206F776E6572206F66206E PUSH1 0x20 DUP3 ADD MSTORE PUSH32 0x6674000000000000000000000000000000000000000000000000000000000000 PUSH1 0x40 DUP3 ADD MSTORE POP JUMP JUMPDEST PUSH2 0x421 DUP2 PUSH2 0x32C JUMP JUMPDEST DUP2 EQ PUSH2 0x42C JUMPI PUSH1 0x0 DUP1 REVERT JUMPDEST POP JUMP JUMPDEST PUSH2 0x438 DUP2 PUSH2 0x35E JUMP JUMPDEST DUP2 EQ PUSH2 0x443 JUMPI PUSH1 0x0 DUP1 REVERT JUMPDEST POP JUMP INVALID LOG2 PUSH5 0x6970667358 0x22 SLT KECCAK256 CODECOPY 0xD4 CALLDATACOPY DUP10 PUSH17 0x37CADB3DA40174EFDCA3A9BB3E4787D7AC 0x27 0xC 0xEF 0xED SWAP4 PUSH5 0xE80246EB64 PUSH20 0x6F6C634300080400330000000000000000000000 "
        },
        "methodIdentifiers": {
          "send(address,uint256,address,uint256)": "7c1779dc"
        }
      }
    }
  }
}