{
  "_format": "hh-sol-artifact-1",
  "contractName": "DestWrapperManager",
  "sourceName": "contracts/DestWrapperManager.sol",
  "abi": [
    {
      "inputs": [
        {
          "internalType": "uint256",
          "name": "sourceRollup",
          "type": "uint256"
        },
        {
          "internalType": "address",
          "name": "tokenContract",
          "type": "address"
        },
        {
          "internalType": "uint256",
          "name": "tokenId",
          "type": "uint256"
        }
      ],
      "name": "makeWrapper",
      "outputs": [],
      "stateMutability": "nonpayable",
      "type": "function"
    },
    {
      "inputs": [
        {
          "internalType": "bytes32",
          "name": "serialNumber",
          "type": "bytes32"
        }
      ],
      "name": "ownerOf",
      "outputs": [],
      "stateMutability": "view",
      "type": "function"
    },
    {
      "inputs": [
        {
          "internalType": "address",
          "name": "to",
          "type": "address"
        },
        {
          "internalType": "bytes32",
          "name": "serialNumber",
          "type": "bytes32"
        }
      ],
      "name": "transfer",
      "outputs": [],
      "stateMutability": "nonpayable",
      "type": "function"
    }
  ],
  "bytecode": "0x608060405234801561001057600080fd5b50610330806100206000396000f3fe608060405234801561001057600080fd5b50600436106100415760003560e01c80637d32e7bd146100465780637dd5641114610062578063df11a7ac1461007e575b600080fd5b610060600480360381019061005b9190610115565b61009a565b005b61007c60048036038101906100779190610151565b61009e565b005b6100986004803603810190610093919061017a565b6100a1565b005b5050565b50565b60008233836040516020016100b8939291906101f7565b60405160208183030381529060405280519060200120905050505050565b6000813590506100e5816102b5565b92915050565b6000813590506100fa816102cc565b92915050565b60008135905061010f816102e3565b92915050565b6000806040838503121561012857600080fd5b6000610136858286016100d6565b9250506020610147858286016100eb565b9150509250929050565b60006020828403121561016357600080fd5b6000610171848285016100eb565b91505092915050565b60008060006060848603121561018f57600080fd5b600061019d86828701610100565b93505060206101ae868287016100d6565b92505060406101bf86828701610100565b9150509250925092565b6101da6101d582610234565b61027a565b82525050565b6101f16101ec82610270565b61029e565b82525050565b600061020382866101c9565b60148201915061021382856101c9565b60148201915061022382846101e0565b602082019150819050949350505050565b600061023f82610250565b9050919050565b6000819050919050565b600073ffffffffffffffffffffffffffffffffffffffff82169050919050565b6000819050919050565b60006102858261028c565b9050919050565b6000610297826102a8565b9050919050565b6000819050919050565b60008160601b9050919050565b6102be81610234565b81146102c957600080fd5b50565b6102d581610246565b81146102e057600080fd5b50565b6102ec81610270565b81146102f757600080fd5b5056fea264697066735822122048d9eeacca69a129768844009978617b67e41e676efff02e377955c3e76abf4564736f6c63430008040033",
  "linkReferences": {},
  "deployedLinkReferences": {}
}