{
  "_format": "hh-sol-artifact-1",
  "contractName": "DestWrapperManager",
  "sourceName": "contracts/DestWrapperManager.sol",
  "abi": [
    {
      "inputs": [
        {
          "internalType": "address",
          "name": "tokenAddress",
          "type": "address"
        },
        {
          "internalType": "uint256",
          "name": "tokenId",
          "type": "uint256"
        },
        {
          "internalType": "uint256",
          "name": "sourceRollup",
          "type": "uint256"
        }
      ],
      "name": "makeWrapper",
      "outputs": [],
      "stateMutability": "nonpayable",
      "type": "function"
    },
    {
      "inputs": [
        {
          "internalType": "address",
          "name": "to",
          "type": "address"
        },
        {
          "internalType": "bytes32",
          "name": "serialNumber",
          "type": "bytes32"
        }
      ],
      "name": "transfer",
      "outputs": [],
      "stateMutability": "nonpayable",
      "type": "function"
    }
  ],
  "bytecode": "0x608060405234801561001057600080fd5b506106ea806100206000396000f3fe608060405234801561001057600080fd5b50600436106100365760003560e01c80637d32e7bd1461003b578063f2db17b714610057575b600080fd5b61005560048036038101906100509190610399565b610073565b005b610071600480360381019061006c91906103d5565b610168565b005b60008082815260200190815260200160002060009054906101000a900473ffffffffffffffffffffffffffffffffffffffff1673ffffffffffffffffffffffffffffffffffffffff163373ffffffffffffffffffffffffffffffffffffffff1614610113576040517f08c379a000000000000000000000000000000000000000000000000000000000815260040161010a906104ff565b60405180910390fd5b8160008083815260200190815260200160002060006101000a81548173ffffffffffffffffffffffffffffffffffffffff021916908373ffffffffffffffffffffffffffffffffffffffff1602179055505050565b600083338460405160200161017f939291906104a7565b6040516020818303038152906040528051906020012090506101a081610298565b600073ffffffffffffffffffffffffffffffffffffffff1660008083815260200190815260200160002060009054906101000a900473ffffffffffffffffffffffffffffffffffffffff1673ffffffffffffffffffffffffffffffffffffffff1614610241576040517f08c379a00000000000000000000000000000000000000000000000000000000081526004016102389061051f565b60405180910390fd5b3360008083815260200190815260200160002060006101000a81548173ffffffffffffffffffffffffffffffffffffffff021916908373ffffffffffffffffffffffffffffffffffffffff16021790555050505050565b61032e816040516024016102ac91906104e4565b6040516020818303038152906040527f27b7cf85000000000000000000000000000000000000000000000000000000007bffffffffffffffffffffffffffffffffffffffffffffffffffffffff19166020820180517bffffffffffffffffffffffffffffffffffffffffffffffffffffffff8381831617835250505050610331565b50565b60008151905060006a636f6e736f6c652e6c6f679050602083016000808483855afa5050505050565b6000813590506103698161066f565b92915050565b60008135905061037e81610686565b92915050565b6000813590506103938161069d565b92915050565b600080604083850312156103ac57600080fd5b60006103ba8582860161035a565b92505060206103cb8582860161036f565b9150509250929050565b6000806000606084860312156103ea57600080fd5b60006103f88682870161035a565b935050602061040986828701610384565b925050604061041a86828701610384565b9150509250925092565b61043561043082610550565b610596565b82525050565b61044481610562565b82525050565b600061045760308361053f565b9150610462826105d1565b604082019050919050565b600061047a60308361053f565b915061048582610620565b604082019050919050565b6104a161049c8261058c565b6105ba565b82525050565b60006104b38286610424565b6014820191506104c38285610424565b6014820191506104d38284610490565b602082019150819050949350505050565b60006020820190506104f9600083018461043b565b92915050565b600060208201905081810360008301526105188161044a565b9050919050565b600060208201905081810360008301526105388161046d565b9050919050565b600082825260208201905092915050565b600061055b8261056c565b9050919050565b6000819050919050565b600073ffffffffffffffffffffffffffffffffffffffff82169050919050565b6000819050919050565b60006105a1826105a8565b9050919050565b60006105b3826105c4565b9050919050565b6000819050919050565b60008160601b9050919050565b7f44657374577261707065724d616e616765723a207472616e736665722063616c60008201527f6c6564206279206e6f6e2d6f776e657200000000000000000000000000000000602082015250565b7f44657374577261707065724d616e616765723a2073657269616c206e756d626560008201527f7220616c72656164792065786973747300000000000000000000000000000000602082015250565b61067881610550565b811461068357600080fd5b50565b61068f81610562565b811461069a57600080fd5b50565b6106a68161058c565b81146106b157600080fd5b5056fea2646970667358221220b0678190249edd922e21fd67910c017a53b026fa3571fe6c9d1733370a448be764736f6c63430008040033",
  "linkReferences": {},
  "deployedLinkReferences": {}
}