{
  "_format": "hh-sol-artifact-1",
  "contractName": "DestWrapperManager",
  "sourceName": "contracts/DestWrapperManager.sol",
  "abi": [
    {
      "anonymous": false,
      "inputs": [
        {
          "indexed": false,
          "internalType": "bytes32",
          "name": "serialNumber",
          "type": "bytes32"
        }
      ],
      "name": "NewWrapper",
      "type": "event"
    },
    {
      "inputs": [
        {
          "internalType": "address",
          "name": "tokenAddress",
          "type": "address"
        },
        {
          "internalType": "uint256",
          "name": "tokenId",
          "type": "uint256"
        },
        {
          "internalType": "uint256",
          "name": "sourceRollup",
          "type": "uint256"
        }
      ],
      "name": "makeWrapper",
      "outputs": [],
      "stateMutability": "nonpayable",
      "type": "function"
    },
    {
      "inputs": [
        {
          "internalType": "bytes32",
          "name": "",
          "type": "bytes32"
        }
      ],
      "name": "owners",
      "outputs": [
        {
          "internalType": "address",
          "name": "",
          "type": "address"
        }
      ],
      "stateMutability": "view",
      "type": "function"
    },
    {
      "inputs": [
        {
          "internalType": "address",
          "name": "to",
          "type": "address"
        },
        {
          "internalType": "bytes32",
          "name": "serialNumber",
          "type": "bytes32"
        }
      ],
      "name": "transfer",
      "outputs": [],
      "stateMutability": "nonpayable",
      "type": "function"
    },
    {
      "inputs": [
        {
          "internalType": "bytes32",
          "name": "serialNumber",
          "type": "bytes32"
        }
      ],
      "name": "withdraw",
      "outputs": [],
      "stateMutability": "nonpayable",
      "type": "function"
    }
  ],
  "bytecode": "0x608060405234801561001057600080fd5b506108d5806100206000396000f3fe608060405234801561001057600080fd5b506004361061004c5760003560e01c80637d32e7bd146100515780638e19899e1461006d578063f2db17b714610089578063fb8ad6ff146100a5575b600080fd5b61006b600480360381019061006691906104e8565b6100d5565b005b61008760048036038101906100829190610528565b6101ca565b005b6100a3600480360381019061009e919061058b565b6102be565b005b6100bf60048036038101906100ba9190610528565b61041c565b6040516100cc91906105ed565b60405180910390f35b60008082815260200190815260200160002060009054906101000a900473ffffffffffffffffffffffffffffffffffffffff1673ffffffffffffffffffffffffffffffffffffffff163373ffffffffffffffffffffffffffffffffffffffff1614610175576040517f08c379a000000000000000000000000000000000000000000000000000000000815260040161016c9061068b565b60405180910390fd5b8160008083815260200190815260200160002060006101000a81548173ffffffffffffffffffffffffffffffffffffffff021916908373ffffffffffffffffffffffffffffffffffffffff1602179055505050565b60008082815260200190815260200160002060009054906101000a900473ffffffffffffffffffffffffffffffffffffffff1673ffffffffffffffffffffffffffffffffffffffff163373ffffffffffffffffffffffffffffffffffffffff161461026a576040517f08c379a00000000000000000000000000000000000000000000000000000000081526004016102619061071d565b60405180910390fd5b3060008083815260200190815260200160002060006101000a81548173ffffffffffffffffffffffffffffffffffffffff021916908373ffffffffffffffffffffffffffffffffffffffff16021790555050565b60008333846040516020016102d5939291906107a6565b604051602081830303815290604052805190602001209050600073ffffffffffffffffffffffffffffffffffffffff1660008083815260200190815260200160002060009054906101000a900473ffffffffffffffffffffffffffffffffffffffff1673ffffffffffffffffffffffffffffffffffffffff161461038e576040517f08c379a000000000000000000000000000000000000000000000000000000000815260040161038590610855565b60405180910390fd5b7f2a3676d0b15f3aa8b1ecce0593aecbdc86a5b205f9da5688ad5ba941ede1f4d6816040516103bd9190610884565b60405180910390a13360008083815260200190815260200160002060006101000a81548173ffffffffffffffffffffffffffffffffffffffff021916908373ffffffffffffffffffffffffffffffffffffffff16021790555050505050565b60006020528060005260406000206000915054906101000a900473ffffffffffffffffffffffffffffffffffffffff1681565b600080fd5b600073ffffffffffffffffffffffffffffffffffffffff82169050919050565b600061047f82610454565b9050919050565b61048f81610474565b811461049a57600080fd5b50565b6000813590506104ac81610486565b92915050565b6000819050919050565b6104c5816104b2565b81146104d057600080fd5b50565b6000813590506104e2816104bc565b92915050565b600080604083850312156104ff576104fe61044f565b5b600061050d8582860161049d565b925050602061051e858286016104d3565b9150509250929050565b60006020828403121561053e5761053d61044f565b5b600061054c848285016104d3565b91505092915050565b6000819050919050565b61056881610555565b811461057357600080fd5b50565b6000813590506105858161055f565b92915050565b6000806000606084860312156105a4576105a361044f565b5b60006105b28682870161049d565b93505060206105c386828701610576565b92505060406105d486828701610576565b9150509250925092565b6105e781610474565b82525050565b600060208201905061060260008301846105de565b92915050565b600082825260208201905092915050565b7f44657374577261707065724d616e616765723a207472616e736665722063616c60008201527f6c6564206279206e6f6e2d6f776e657200000000000000000000000000000000602082015250565b6000610675603083610608565b915061068082610619565b604082019050919050565b600060208201905081810360008301526106a481610668565b9050919050565b7f44657374577261707065724d616e616765723a206e6674206d7573742062652060008201527f77697468647261776e206279206f776e65720000000000000000000000000000602082015250565b6000610707603283610608565b9150610712826106ab565b604082019050919050565b60006020820190508181036000830152610736816106fa565b9050919050565b60008160601b9050919050565b60006107558261073d565b9050919050565b60006107678261074a565b9050919050565b61077f61077a82610474565b61075c565b82525050565b6000819050919050565b6107a061079b82610555565b610785565b82525050565b60006107b2828661076e565b6014820191506107c2828561076e565b6014820191506107d2828461078f565b602082019150819050949350505050565b7f44657374577261707065724d616e616765723a2073657269616c206e756d626560008201527f7220616c72656164792065786973747300000000000000000000000000000000602082015250565b600061083f603083610608565b915061084a826107e3565b604082019050919050565b6000602082019050818103600083015261086e81610832565b9050919050565b61087e816104b2565b82525050565b60006020820190506108996000830184610875565b9291505056fea26469706673582212208977cd5f9c8e1def1802e8a81a18014988b8aef0d9fff07cb8f75f84c0be707b64736f6c63430008090033",
  "linkReferences": {},
  "deployedLinkReferences": {}
}